{
  "address": "0xabd81CCF849d4c6d3dC9E0025CEd00A65bb16D6b",
  "abi": [
    {
      "anonymous": false,
      "inputs": [
        {
          "indexed": true,
          "internalType": "address",
          "name": "owner",
          "type": "address"
        },
        {
          "indexed": true,
          "internalType": "address",
          "name": "spender",
          "type": "address"
        },
        {
          "indexed": false,
          "internalType": "uint256",
          "name": "value",
          "type": "uint256"
        }
      ],
      "name": "Approval",
      "type": "event"
    },
    {
      "anonymous": false,
      "inputs": [
        {
          "indexed": false,
          "internalType": "uint256",
          "name": "index",
          "type": "uint256"
        }
      ],
      "name": "CanceledDocument",
      "type": "event"
    },
    {
      "anonymous": false,
      "inputs": [
        {
          "indexed": true,
          "internalType": "address",
          "name": "approval",
          "type": "address"
        },
        {
          "indexed": false,
          "internalType": "string",
          "name": "name",
          "type": "string"
        },
        {
          "indexed": false,
          "internalType": "string",
          "name": "promo",
          "type": "string"
        },
        {
          "indexed": false,
          "internalType": "string",
          "name": "hash",
          "type": "string"
        },
        {
          "indexed": false,
          "internalType": "uint256",
          "name": "uploadedAt",
          "type": "uint256"
        },
        {
          "indexed": false,
          "internalType": "string",
          "name": "ext",
          "type": "string"
        }
      ],
      "name": "DocumentSubmitted",
      "type": "event"
    },
    {
      "anonymous": false,
      "inputs": [
        {
          "indexed": false,
          "internalType": "uint8",
          "name": "version",
          "type": "uint8"
        }
      ],
      "name": "Initialized",
      "type": "event"
    },
    {
      "anonymous": false,
      "inputs": [
        {
          "indexed": false,
          "internalType": "uint256",
          "name": "_players",
          "type": "uint256"
        },
        {
          "indexed": false,
          "internalType": "uint256[]",
          "name": "_winners",
          "type": "uint256[]"
        },
        {
          "indexed": false,
          "internalType": "uint256[]",
          "name": "_alternates",
          "type": "uint256[]"
        },
        {
          "indexed": false,
          "internalType": "string",
          "name": "_ipfsHash",
          "type": "string"
        },
        {
          "indexed": false,
          "internalType": "uint256",
          "name": "",
          "type": "uint256"
        }
      ],
      "name": "NewSort",
      "type": "event"
    },
    {
      "anonymous": false,
      "inputs": [
        {
          "indexed": true,
          "internalType": "bytes32",
          "name": "role",
          "type": "bytes32"
        },
        {
          "indexed": true,
          "internalType": "bytes32",
          "name": "previousAdminRole",
          "type": "bytes32"
        },
        {
          "indexed": true,
          "internalType": "bytes32",
          "name": "newAdminRole",
          "type": "bytes32"
        }
      ],
      "name": "RoleAdminChanged",
      "type": "event"
    },
    {
      "anonymous": false,
      "inputs": [
        {
          "indexed": true,
          "internalType": "bytes32",
          "name": "role",
          "type": "bytes32"
        },
        {
          "indexed": true,
          "internalType": "address",
          "name": "account",
          "type": "address"
        },
        {
          "indexed": true,
          "internalType": "address",
          "name": "sender",
          "type": "address"
        }
      ],
      "name": "RoleGranted",
      "type": "event"
    },
    {
      "anonymous": false,
      "inputs": [
        {
          "indexed": true,
          "internalType": "bytes32",
          "name": "role",
          "type": "bytes32"
        },
        {
          "indexed": true,
          "internalType": "address",
          "name": "account",
          "type": "address"
        },
        {
          "indexed": true,
          "internalType": "address",
          "name": "sender",
          "type": "address"
        }
      ],
      "name": "RoleRevoked",
      "type": "event"
    },
    {
      "anonymous": false,
      "inputs": [
        {
          "indexed": true,
          "internalType": "address",
          "name": "from",
          "type": "address"
        },
        {
          "indexed": true,
          "internalType": "address",
          "name": "to",
          "type": "address"
        },
        {
          "indexed": false,
          "internalType": "uint256",
          "name": "value",
          "type": "uint256"
        }
      ],
      "name": "Transfer",
      "type": "event"
    },
    {
      "inputs": [],
      "name": "DEFAULT_ADMIN_ROLE",
      "outputs": [
        {
          "internalType": "bytes32",
          "name": "",
          "type": "bytes32"
        }
      ],
      "stateMutability": "view",
      "type": "function"
    },
    {
      "inputs": [
        {
          "internalType": "address",
          "name": "account",
          "type": "address"
        },
        {
          "internalType": "uint256",
          "name": "amount",
          "type": "uint256"
        }
      ],
      "name": "_burn",
      "outputs": [],
      "stateMutability": "nonpayable",
      "type": "function"
    },
    {
      "inputs": [],
      "name": "_initialized",
      "outputs": [
        {
          "internalType": "uint8",
          "name": "",
          "type": "uint8"
        }
      ],
      "stateMutability": "view",
      "type": "function"
    },
    {
      "inputs": [],
      "name": "_initializing",
      "outputs": [
        {
          "internalType": "bool",
          "name": "",
          "type": "bool"
        }
      ],
      "stateMutability": "view",
      "type": "function"
    },
    {
      "inputs": [
        {
          "internalType": "address",
          "name": "account",
          "type": "address"
        },
        {
          "internalType": "uint256",
          "name": "amount",
          "type": "uint256"
        }
      ],
      "name": "_mint",
      "outputs": [],
      "stateMutability": "nonpayable",
      "type": "function"
    },
    {
      "inputs": [
        {
          "internalType": "uint256",
          "name": "",
          "type": "uint256"
        }
      ],
      "name": "allData",
      "outputs": [
        {
          "internalType": "uint256",
          "name": "dataLotteryId",
          "type": "uint256"
        },
        {
          "internalType": "string",
          "name": "ipfsDataBack",
          "type": "string"
        },
        {
          "internalType": "uint256",
          "name": "idDocument",
          "type": "uint256"
        }
      ],
      "stateMutability": "view",
      "type": "function"
    },
    {
      "inputs": [
        {
          "internalType": "address",
          "name": "owner",
          "type": "address"
        },
        {
          "internalType": "address",
          "name": "spender",
          "type": "address"
        }
      ],
      "name": "allowance",
      "outputs": [
        {
          "internalType": "uint256",
          "name": "",
          "type": "uint256"
        }
      ],
      "stateMutability": "view",
      "type": "function"
    },
    {
      "inputs": [
        {
          "internalType": "address",
          "name": "spender",
          "type": "address"
        },
        {
          "internalType": "uint256",
          "name": "amount",
          "type": "uint256"
        }
      ],
      "name": "approve",
      "outputs": [
        {
          "internalType": "bool",
          "name": "",
          "type": "bool"
        }
      ],
      "stateMutability": "nonpayable",
      "type": "function"
    },
    {
      "inputs": [
        {
          "internalType": "address",
          "name": "account",
          "type": "address"
        }
      ],
      "name": "balanceOf",
      "outputs": [
        {
          "internalType": "uint256",
          "name": "",
          "type": "uint256"
        }
      ],
      "stateMutability": "view",
      "type": "function"
    },
    {
      "inputs": [
        {
          "internalType": "uint256",
          "name": "index",
          "type": "uint256"
        }
      ],
      "name": "cancelDocument",
      "outputs": [
        {
          "internalType": "bool",
          "name": "",
          "type": "bool"
        }
      ],
      "stateMutability": "nonpayable",
      "type": "function"
    },
    {
      "inputs": [
        {
          "internalType": "uint256",
          "name": "",
          "type": "uint256"
        }
      ],
      "name": "canceledDocuments",
      "outputs": [
        {
          "internalType": "address",
          "name": "owner",
          "type": "address"
        },
        {
          "internalType": "string",
          "name": "name",
          "type": "string"
        },
        {
          "internalType": "string",
          "name": "promo",
          "type": "string"
        },
        {
          "internalType": "uint256",
          "name": "validityStart",
          "type": "uint256"
        },
        {
          "internalType": "uint256",
          "name": "validityEnd",
          "type": "uint256"
        },
        {
          "internalType": "string",
          "name": "hash",
          "type": "string"
        },
        {
          "internalType": "uint256",
          "name": "uploadedAt",
          "type": "uint256"
        },
        {
          "internalType": "string",
          "name": "explorerLink",
          "type": "string"
        },
        {
          "internalType": "string",
          "name": "ipfsLink",
          "type": "string"
        },
        {
          "internalType": "bool",
          "name": "isVisible",
          "type": "bool"
        }
      ],
      "stateMutability": "view",
      "type": "function"
    },
    {
      "inputs": [
        {
          "internalType": "uint256",
          "name": "documentIndex",
          "type": "uint256"
        }
      ],
      "name": "changeDocumentVisibility",
      "outputs": [
        {
          "internalType": "bool",
          "name": "",
          "type": "bool"
        }
      ],
      "stateMutability": "nonpayable",
      "type": "function"
    },
    {
      "inputs": [
        {
          "internalType": "address",
          "name": "_newMasterWallet",
          "type": "address"
        }
      ],
      "name": "changeMasterWallet",
      "outputs": [],
      "stateMutability": "nonpayable",
      "type": "function"
    },
    {
      "inputs": [],
      "name": "currentDataLotteryId",
      "outputs": [
        {
          "internalType": "uint256",
          "name": "",
          "type": "uint256"
        }
      ],
      "stateMutability": "view",
      "type": "function"
    },
    {
      "inputs": [
        {
          "internalType": "uint256",
          "name": "",
          "type": "uint256"
        }
      ],
      "name": "dataLotteryRecord",
      "outputs": [
        {
          "internalType": "uint256",
          "name": "dataLotteryId",
          "type": "uint256"
        },
        {
          "internalType": "string",
          "name": "ipfsDataBack",
          "type": "string"
        },
        {
          "internalType": "uint256",
          "name": "idDocument",
          "type": "uint256"
        }
      ],
      "stateMutability": "view",
      "type": "function"
    },
    {
      "inputs": [],
      "name": "decimals",
      "outputs": [
        {
          "internalType": "uint8",
          "name": "",
          "type": "uint8"
        }
      ],
      "stateMutability": "view",
      "type": "function"
    },
    {
      "inputs": [
        {
          "internalType": "address",
          "name": "spender",
          "type": "address"
        },
        {
          "internalType": "uint256",
          "name": "subtractedValue",
          "type": "uint256"
        }
      ],
      "name": "decreaseAllowance",
      "outputs": [
        {
          "internalType": "bool",
          "name": "",
          "type": "bool"
        }
      ],
      "stateMutability": "nonpayable",
      "type": "function"
    },
    {
      "inputs": [
        {
          "internalType": "uint256",
          "name": "",
          "type": "uint256"
        }
      ],
      "name": "documents",
      "outputs": [
        {
          "internalType": "address",
          "name": "owner",
          "type": "address"
        },
        {
          "internalType": "string",
          "name": "name",
          "type": "string"
        },
        {
          "internalType": "string",
          "name": "promo",
          "type": "string"
        },
        {
          "internalType": "uint256",
          "name": "validityStart",
          "type": "uint256"
        },
        {
          "internalType": "uint256",
          "name": "validityEnd",
          "type": "uint256"
        },
        {
          "internalType": "string",
          "name": "hash",
          "type": "string"
        },
        {
          "internalType": "uint256",
          "name": "uploadedAt",
          "type": "uint256"
        },
        {
          "internalType": "string",
          "name": "explorerLink",
          "type": "string"
        },
        {
          "internalType": "string",
          "name": "ipfsLink",
          "type": "string"
        },
        {
          "internalType": "bool",
          "name": "isVisible",
          "type": "bool"
        }
      ],
      "stateMutability": "view",
      "type": "function"
    },
    {
      "inputs": [],
      "name": "documentsCount",
      "outputs": [
        {
          "internalType": "uint256",
          "name": "",
          "type": "uint256"
        }
      ],
      "stateMutability": "view",
      "type": "function"
    },
    {
      "inputs": [
        {
          "internalType": "bytes32",
          "name": "role",
          "type": "bytes32"
        }
      ],
      "name": "getRoleAdmin",
      "outputs": [
        {
          "internalType": "bytes32",
          "name": "",
          "type": "bytes32"
        }
      ],
      "stateMutability": "view",
      "type": "function"
    },
    {
      "inputs": [
        {
          "internalType": "bytes32",
          "name": "role",
          "type": "bytes32"
        },
        {
          "internalType": "address",
          "name": "account",
          "type": "address"
        }
      ],
      "name": "grantRole",
      "outputs": [],
      "stateMutability": "nonpayable",
      "type": "function"
    },
    {
      "inputs": [
        {
          "internalType": "bytes32",
          "name": "role",
          "type": "bytes32"
        },
        {
          "internalType": "address",
          "name": "account",
          "type": "address"
        }
      ],
      "name": "hasRole",
      "outputs": [
        {
          "internalType": "bool",
          "name": "",
          "type": "bool"
        }
      ],
      "stateMutability": "view",
      "type": "function"
    },
    {
      "inputs": [
        {
          "internalType": "address",
          "name": "spender",
          "type": "address"
        },
        {
          "internalType": "uint256",
          "name": "addedValue",
          "type": "uint256"
        }
      ],
      "name": "increaseAllowance",
      "outputs": [
        {
          "internalType": "bool",
          "name": "",
          "type": "bool"
        }
      ],
      "stateMutability": "nonpayable",
      "type": "function"
    },
    {
      "inputs": [
        {
          "internalType": "address[]",
          "name": "admins",
          "type": "address[]"
        },
        {
          "internalType": "address",
          "name": "_masterWallet",
          "type": "address"
        }
      ],
      "name": "initialize",
      "outputs": [],
      "stateMutability": "nonpayable",
      "type": "function"
    },
    {
      "inputs": [
        {
          "internalType": "uint256",
          "name": "_number",
          "type": "uint256"
        },
        {
          "internalType": "uint256[]",
          "name": "_array",
          "type": "uint256[]"
        }
      ],
      "name": "isRepeated",
      "outputs": [
        {
          "internalType": "bool",
          "name": "",
          "type": "bool"
        }
      ],
      "stateMutability": "pure",
      "type": "function"
    },
    {
      "inputs": [],
      "name": "name",
      "outputs": [
        {
          "internalType": "string",
          "name": "",
          "type": "string"
        }
      ],
      "stateMutability": "view",
      "type": "function"
    },
    {
      "inputs": [
        {
          "internalType": "uint256",
          "name": "_amountOfDocuments",
          "type": "uint256"
        },
        {
          "internalType": "address",
          "name": "_userAddress",
          "type": "address"
        }
      ],
      "name": "registerAnUser",
      "outputs": [],
      "stateMutability": "payable",
      "type": "function"
    },
    {
      "inputs": [
        {
          "internalType": "uint256",
          "name": "index",
          "type": "uint256"
        }
      ],
      "name": "removeDocument",
      "outputs": [
        {
          "internalType": "bool",
          "name": "",
          "type": "bool"
        }
      ],
      "stateMutability": "nonpayable",
      "type": "function"
    },
    {
      "inputs": [
        {
          "internalType": "bytes32",
          "name": "role",
          "type": "bytes32"
        },
        {
          "internalType": "address",
          "name": "account",
          "type": "address"
        }
      ],
      "name": "renounceRole",
      "outputs": [],
      "stateMutability": "nonpayable",
      "type": "function"
    },
    {
      "inputs": [
        {
          "internalType": "bytes32",
          "name": "role",
          "type": "bytes32"
        },
        {
          "internalType": "address",
          "name": "account",
          "type": "address"
        }
      ],
      "name": "revokeRole",
      "outputs": [],
      "stateMutability": "nonpayable",
      "type": "function"
    },
    {
      "inputs": [],
      "name": "seeCurrentData",
      "outputs": [
        {
          "components": [
            {
              "internalType": "uint256",
              "name": "dataLotteryId",
              "type": "uint256"
            },
            {
              "internalType": "uint256[]",
              "name": "winners",
              "type": "uint256[]"
            },
            {
              "internalType": "uint256[]",
              "name": "alternates",
              "type": "uint256[]"
            },
            {
              "internalType": "string",
              "name": "ipfsDataBack",
              "type": "string"
            },
            {
              "internalType": "uint256",
              "name": "idDocument",
              "type": "uint256"
            }
          ],
          "internalType": "struct BlockToWinV2.DataLottery",
          "name": "",
          "type": "tuple"
        }
      ],
      "stateMutability": "view",
      "type": "function"
    },
    {
      "inputs": [
        {
          "internalType": "uint256",
          "name": "_id",
          "type": "uint256"
        }
      ],
      "name": "seeDataUnique",
      "outputs": [
        {
          "components": [
            {
              "internalType": "uint256",
              "name": "dataLotteryId",
              "type": "uint256"
            },
            {
              "internalType": "uint256[]",
              "name": "winners",
              "type": "uint256[]"
            },
            {
              "internalType": "uint256[]",
              "name": "alternates",
              "type": "uint256[]"
            },
            {
              "internalType": "string",
              "name": "ipfsDataBack",
              "type": "string"
            },
            {
              "internalType": "uint256",
              "name": "idDocument",
              "type": "uint256"
            }
          ],
          "internalType": "struct BlockToWinV2.DataLottery",
          "name": "",
          "type": "tuple"
        }
      ],
      "stateMutability": "view",
      "type": "function"
    },
    {
      "inputs": [
        {
          "internalType": "string",
          "name": "_ipfsDataBack",
          "type": "string"
        },
        {
          "internalType": "uint256",
          "name": "_totalPlayers",
          "type": "uint256"
        },
        {
          "internalType": "uint256",
          "name": "_numberOfWinners",
          "type": "uint256"
        },
        {
          "internalType": "uint256",
          "name": "_numberOfAlternates",
          "type": "uint256"
        },
        {
          "internalType": "uint256",
          "name": "_idDocument",
          "type": "uint256"
        }
      ],
      "name": "shakeTheNumbers",
      "outputs": [
        {
          "components": [
            {
              "internalType": "uint256",
              "name": "dataLotteryId",
              "type": "uint256"
            },
            {
              "internalType": "uint256[]",
              "name": "winners",
              "type": "uint256[]"
            },
            {
              "internalType": "uint256[]",
              "name": "alternates",
              "type": "uint256[]"
            },
            {
              "internalType": "string",
              "name": "ipfsDataBack",
              "type": "string"
            },
            {
              "internalType": "uint256",
              "name": "idDocument",
              "type": "uint256"
            }
          ],
          "internalType": "struct BlockToWinV2.DataLottery",
          "name": "",
          "type": "tuple"
        }
      ],
      "stateMutability": "nonpayable",
      "type": "function"
    },
    {
      "inputs": [
        {
          "internalType": "string",
          "name": "name",
          "type": "string"
        },
        {
          "internalType": "string",
          "name": "promo",
          "type": "string"
        },
        {
          "internalType": "uint256",
          "name": "validityStart",
          "type": "uint256"
        },
        {
          "internalType": "uint256",
          "name": "validityEnd",
          "type": "uint256"
        },
        {
          "internalType": "string",
          "name": "hash",
          "type": "string"
        },
        {
          "internalType": "uint256",
          "name": "uploadedAt",
          "type": "uint256"
        },
        {
          "internalType": "string",
          "name": "explorerLink",
          "type": "string"
        },
        {
          "internalType": "string",
          "name": "ipfsLink",
          "type": "string"
        },
        {
          "internalType": "string",
          "name": "ext",
          "type": "string"
        },
        {
          "internalType": "bool",
          "name": "isVisible",
          "type": "bool"
        }
      ],
      "name": "submitDocument",
      "outputs": [],
      "stateMutability": "nonpayable",
      "type": "function"
    },
    {
      "inputs": [
        {
          "internalType": "bytes4",
          "name": "interfaceId",
          "type": "bytes4"
        }
      ],
      "name": "supportsInterface",
      "outputs": [
        {
          "internalType": "bool",
          "name": "",
          "type": "bool"
        }
      ],
      "stateMutability": "view",
      "type": "function"
    },
    {
      "inputs": [],
      "name": "symbol",
      "outputs": [
        {
          "internalType": "string",
          "name": "",
          "type": "string"
        }
      ],
      "stateMutability": "view",
      "type": "function"
    },
    {
      "inputs": [],
      "name": "totalSupply",
      "outputs": [
        {
          "internalType": "uint256",
          "name": "",
          "type": "uint256"
        }
      ],
      "stateMutability": "view",
      "type": "function"
    },
    {
      "inputs": [
        {
          "internalType": "address",
          "name": "to",
          "type": "address"
        },
        {
          "internalType": "uint256",
          "name": "amount",
          "type": "uint256"
        }
      ],
      "name": "transfer",
      "outputs": [
        {
          "internalType": "bool",
          "name": "",
          "type": "bool"
        }
      ],
      "stateMutability": "nonpayable",
      "type": "function"
    },
    {
      "inputs": [
        {
          "internalType": "address",
          "name": "from",
          "type": "address"
        },
        {
          "internalType": "address",
          "name": "to",
          "type": "address"
        },
        {
          "internalType": "uint256",
          "name": "amount",
          "type": "uint256"
        }
      ],
      "name": "transferFrom",
      "outputs": [
        {
          "internalType": "bool",
          "name": "",
          "type": "bool"
        }
      ],
      "stateMutability": "nonpayable",
      "type": "function"
    },
    {
      "inputs": [
        {
          "internalType": "string",
          "name": "hash",
          "type": "string"
        }
      ],
      "name": "verifyDocument",
      "outputs": [
        {
          "internalType": "bool",
          "name": "",
          "type": "bool"
        }
      ],
      "stateMutability": "view",
      "type": "function"
    }
  ],
  "transactionHash": "0x658590cd4e4984e167a9ed3f82a798aa8f772c06ed70983634a04ceececddea2",
  "args": [],
  "numDeployments": 1,
  "solcInputHash": "a3d0bf5d186fa7f8be175b98c88181d5",
  "bytecode": "0x608060405234801561001057600080fd5b50613b51806100206000396000f3fe60806040526004361061023b5760003560e01c80636b9f10291161012e578063beee5eb7116100ab578063df17319f1161006f578063df17319f146106a1578063dff0ef4f146106c1578063e3335120146106e1578063f8d27e2314610701578063f955905d146107165761023b565b8063beee5eb7146105eb578063c2ed2b051461060b578063d547741f14610641578063d5df755914610661578063dd62ed3e146106815761023b565b80639a83fb5b116100f25780639a83fb5b14610556578063a217fddf14610576578063a457c2d71461058b578063a48d224e146105ab578063a9059cbb146105cb5761023b565b80636b9f1029146104cc57806370a08231146104ec57806391d148541461050c57806395d89b411461052c57806395e52d98146105415761023b565b8063313ce567116101bc578063462d0b2e11610180578063462d0b2e146104375780634e6ec247146104575780635410af95146104775780636161eb181461048c57806364b48a0b146104ac5761023b565b8063313ce567146103a057806336568abe146103b557806337181083146103d557806339509351146103f7578063414b9dca146104175761023b565b80632094719811610203578063209471981461030957806323b872dd1461031e578063248a9ca31461033e5780632f2ff15d1461035e5780633072cf601461037e5761023b565b806301ffc9a71461024057806306fdde0314610276578063095ea7b31461029857806318160ddd146102b85780631ced30d7146102da575b600080fd5b34801561024c57600080fd5b5061026061025b366004612cb8565b610736565b60405161026d9190613259565b60405180910390f35b34801561028257600080fd5b5061028b610763565b60405161026d919061327b565b3480156102a457600080fd5b506102606102b3366004612ba7565b6107f5565b3480156102c457600080fd5b506102cd610819565b60405161026d9190613264565b3480156102e657600080fd5b506102fa6102f5366004612c7e565b61081f565b60405161026d93929190613965565b61031c610317366004612c96565b6108cb565b005b34801561032a57600080fd5b50610260610339366004612b6c565b6109bd565b34801561034a57600080fd5b506102cd610359366004612c7e565b6109eb565b34801561036a57600080fd5b5061031c610379366004612c96565b610a00565b34801561038a57600080fd5b50610393610a21565b60405161026d919061326d565b3480156103ac57600080fd5b50610393610a2a565b3480156103c157600080fd5b5061031c6103d0366004612c96565b610a2f565b3480156103e157600080fd5b506103ea610a71565b60405161026d919061389a565b34801561040357600080fd5b50610260610412366004612ba7565b610bf5565b34801561042357600080fd5b5061031c610432366004612b20565b610c21565b34801561044357600080fd5b5061031c610452366004612bd0565b610c6a565b34801561046357600080fd5b5061031c610472366004612ba7565b610dba565b34801561048357600080fd5b506102cd610e64565b34801561049857600080fd5b5061031c6104a7366004612ba7565b610e6a565b3480156104b857600080fd5b506103ea6104c7366004612c7e565b610f41565b3480156104d857600080fd5b5061031c6104e7366004612d1b565b6110ba565b3480156104f857600080fd5b506102cd610507366004612b20565b6113d3565b34801561051857600080fd5b50610260610527366004612c96565b6113ee565b34801561053857600080fd5b5061028b611419565b34801561054d57600080fd5b506102cd611428565b34801561056257600080fd5b506103ea610571366004612e3a565b61142e565b34801561058257600080fd5b506102cd611794565b34801561059757600080fd5b506102606105a6366004612ba7565b611799565b3480156105b757600080fd5b506102fa6105c6366004612c7e565b6117e1565b3480156105d757600080fd5b506102606105e6366004612ba7565b611817565b3480156105f757600080fd5b50610260610606366004612ce0565b61182f565b34801561061757600080fd5b5061062b610626366004612c7e565b61189b565b60405161026d9a999897969594939291906131b6565b34801561064d57600080fd5b5061031c61065c366004612c96565b611b9d565b34801561066d57600080fd5b5061026061067c366004612c7e565b611bb9565b34801561068d57600080fd5b506102cd61069c366004612b3a565b611c98565b3480156106ad57600080fd5b506102606106bc366004612c7e565b611cc3565b3480156106cd57600080fd5b5061062b6106dc366004612c7e565b611f24565b3480156106ed57600080fd5b506102606106fc366004612c7e565b611f50565b34801561070d57600080fd5b50610260611fba565b34801561072257600080fd5b50610260610731366004612ead565b611fc8565b60006001600160e01b03198216637965db0b60e01b148061075b575061075b8261202a565b90505b919050565b6060609a805461077290613a79565b80601f016020809104026020016040519081016040528092919081815260200182805461079e90613a79565b80156107eb5780601f106107c0576101008083540402835291602001916107eb565b820191906000526020600020905b8154815290600101906020018083116107ce57829003601f168201915b5050505050905090565b600080610800612043565b905061080d818585612047565b60019150505b92915050565b60995490565b610100602052600090815260409020805460038201805491929161084290613a79565b80601f016020809104026020016040519081016040528092919081815260200182805461086e90613a79565b80156108bb5780601f10610890576101008083540402835291602001916108bb565b820191906000526020600020905b81548152906001019060200180831161089e57829003601f168201915b5050505050908060040154905083565b6108d66000336113ee565b6108fb5760405162461bcd60e51b81526004016108f2906136e6565b60405180910390fd5b6109036120fb565b600034116109235760405162461bcd60e51b81526004016108f2906135f2565b604051634e6ec24760e01b81523090634e6ec24790610948908490869060040161319d565b600060405180830381600087803b15801561096257600080fd5b505af1158015610976573d6000803e3d6000fd5b50506040516001600160a01b03841692503480156108fc029250906000818181858888f193505050501580156109b0573d6000803e3d6000fd5b506109b9612125565b5050565b6000806109c8612043565b90506109d585828561212c565b6109e0858585612176565b506001949350505050565b60009081526065602052604090206001015490565b610a09826109eb565b610a1281612277565b610a1c838361228b565b505050565b60005460ff1681565b601290565b610a37612043565b6001600160a01b0316816001600160a01b031614610a675760405162461bcd60e51b81526004016108f290613814565b6109b98282612312565b610a796128d4565b610100600060fc5481526020019081526020016000206040518060a00160405290816000820154815260200160018201805480602002602001604051908101604052809291908181526020018280548015610af357602002820191906000526020600020905b815481526020019060010190808311610adf575b5050505050815260200160028201805480602002602001604051908101604052809291908181526020018280548015610b4b57602002820191906000526020600020905b815481526020019060010190808311610b37575b50505050508152602001600382018054610b6490613a79565b80601f0160208091040260200160405190810160405280929190818152602001828054610b9090613a79565b8015610bdd5780601f10610bb257610100808354040283529160200191610bdd565b820191906000526020600020905b815481529060010190602001808311610bc057829003601f168201915b50505050508152602001600482015481525050905090565b600080610c00612043565b905061080d818585610c128589611c98565b610c1c91906139e8565b612047565b610c2c6000336113ee565b610c485760405162461bcd60e51b81526004016108f2906136e6565b60fb80546001600160a01b0319166001600160a01b0392909216919091179055565b600054610100900460ff1615808015610c8a5750600054600160ff909116105b80610cab5750610c9930612397565b158015610cab575060005460ff166001145b610cc75760405162461bcd60e51b81526004016108f2906135a4565b6000805460ff191660011790558015610cea576000805461ff0019166101001790555b60fb80546001600160a01b0319166001600160a01b038416179055610d106000336123c8565b60005b8351811015610d6257610d506000801b858381518110610d4357634e487b7160e01b600052603260045260246000fd5b60200260200101516123c8565b80610d5a81613ab4565b915050610d13565b50610d6b6123d2565b8015610a1c576000805461ff00191690556040517f7f26b83ff96e1f2b6a682f133852f6798a09c465da95921460cefb384740249890610dad9060019061326d565b60405180910390a1505050565b6001600160a01b038216610de05760405162461bcd60e51b81526004016108f290613863565b610dec60008383610a1c565b8060996000828254610dfe91906139e8565b90915550506001600160a01b038216600081815260976020526040808220805485019055517fddf252ad1be2c89b69c2b068fc378daa952ba7f163c4a11628f55a4df523b3ef90610e50908590613264565b60405180910390a36109b960008383610a1c565b60fc5481565b6001600160a01b038216610e905760405162461bcd60e51b81526004016108f290613629565b610e9c82600083610a1c565b6001600160a01b03821660009081526097602052604090205481811015610ed55760405162461bcd60e51b81526004016108f2906133e7565b6001600160a01b0383166000818152609760205260408082208585039055609980548690039055519091907fddf252ad1be2c89b69c2b068fc378daa952ba7f163c4a11628f55a4df523b3ef90610f2d908690613264565b60405180910390a3610a1c83600084610a1c565b610f496128d4565b60008281526101006020908152604091829020825160a0810184528154815260018201805485518186028101860190965280865291949293858101939290830182828015610fb657602002820191906000526020600020905b815481526020019060010190808311610fa2575b505050505081526020016002820180548060200260200160405190810160405280929190818152602001828054801561100e57602002820191906000526020600020905b815481526020019060010190808311610ffa575b5050505050815260200160038201805461102790613a79565b80601f016020809104026020016040519081016040528092919081815260200182805461105390613a79565b80156110a05780601f10611075576101008083540402835291602001916110a0565b820191906000526020600020905b81548152906001019060200180831161108357829003601f168201915b505050505081526020016004820154815250509050919050565b6110c38661182f565b156110e05760405162461bcd60e51b81526004016108f29061356d565b6040516370a0823160e01b815260009030906370a0823190611106903390600401613189565b60206040518083038186803b15801561111e57600080fd5b505afa158015611132573d6000803e3d6000fd5b505050506040513d601f19601f820116820180604052508101906111569190612e95565b118061116c575060fb546001600160a01b031633145b6111885760405162461bcd60e51b81526004016108f2906132ed565b60405180610140016040528061119c612043565b6001600160a01b031681526020018b81526020018a815260200189815260200188815260200187815260200186815260200185815260200184815260200182151581525060fe600060fd54815260200190815260200160002060008201518160000160006101000a8154816001600160a01b0302191690836001600160a01b03160217905550602082015181600101908051906020019061123e929190612903565b506040820151805161125a916002840191602090910190612903565b50606082015160038201556080820151600482015560a0820151805161128a916005840191602090910190612903565b5060c0820151600682015560e082015180516112b0916007840191602090910190612903565b5061010082015180516112cd916008840191602090910190612903565b5061012091909101516009909101805460ff191691151591909117905560fd8054600191906000906113009084906139e8565b909155505060fb546001600160a01b0316331461137757604051630c2c3d6360e31b81523090636161eb1890611344903390670de0b6b3a76400009060040161319d565b600060405180830381600087803b15801561135e57600080fd5b505af1158015611372573d6000803e3d6000fd5b505050505b61137f612043565b6001600160a01b03167f2d0f6b4ccdebe43212fa3227dbadcb7129f23c41bd3fe08615644b3c80394b708b8b8989876040516113bf95949392919061328e565b60405180910390a250505050505050505050565b6001600160a01b031660009081526097602052604090205490565b60009182526065602090815260408084206001600160a01b0393909316845291905290205460ff1690565b6060609b805461077290613a79565b60fd5481565b6114366128d4565b8385116114555760405162461bcd60e51b81526004016108f290613324565b826114608587613a1f565b101561147e5760405162461bcd60e51b81526004016108f29061346b565b60fc805490600061148e83613ab4565b909155505060fc54600081815261010060205260409020556114b18585886123fb565b6114bc85848861251d565b60fc5460009081526101006020908152604090912087516114e592600390920191890190612903565b5060fc8054600090815261010060205260408082206004018590559154815290812061010180546001818101835591909352815460059093027f109ea3cebb188b9c1b9fc5bb3920be60dfdc8699098dff92f3d80daaca74768981019384559082018054929392611579927f109ea3cebb188b9c1b9fc5bb3920be60dfdc8699098dff92f3d80daaca74768a019190612987565b506002828101805461158e9284019190612987565b5060038201816003019080546115a390613a79565b6115ae9291906129c7565b5060049182015491015560fc54600090815261010060205260409081902090517f08261540bf877ae50393677a2ff0f30bf4866f83f5908adc79f2ede83c6fcc679161160a91889160018101916002909101908b908890613913565b60405180910390a1610100600060fc5481526020019081526020016000206040518060a0016040529081600082015481526020016001820180548060200260200160405190810160405280929190818152602001828054801561168c57602002820191906000526020600020905b815481526020019060010190808311611678575b50505050508152602001600282018054806020026020016040519081016040528092919081815260200182805480156116e457602002820191906000526020600020905b8154815260200190600101908083116116d0575b505050505081526020016003820180546116fd90613a79565b80601f016020809104026020016040519081016040528092919081815260200182805461172990613a79565b80156117765780601f1061174b57610100808354040283529160200191611776565b820191906000526020600020905b81548152906001019060200180831161175957829003601f168201915b50505050508152602001600482015481525050905095945050505050565b600081565b6000806117a4612043565b905060006117b28286611c98565b9050838110156117d45760405162461bcd60e51b81526004016108f2906137cf565b6109e08286868403612047565b61010181815481106117f257600080fd5b6000918252602090912060059091020180546003820180549193509061084290613a79565b600080611822612043565b905061080d818585612176565b6000805b60fd5481101561189257828051906020012060fe60008381526020019081526020016000206005016040516118689190612fe1565b6040518091039020141561188057600191505061075e565b8061188a81613ab4565b915050611833565b50600092915050565b60fe60205260009081526040902080546001820180546001600160a01b0390921692916118c790613a79565b80601f01602080910402602001604051908101604052809291908181526020018280546118f390613a79565b80156119405780601f1061191557610100808354040283529160200191611940565b820191906000526020600020905b81548152906001019060200180831161192357829003601f168201915b50505050509080600201805461195590613a79565b80601f016020809104026020016040519081016040528092919081815260200182805461198190613a79565b80156119ce5780601f106119a3576101008083540402835291602001916119ce565b820191906000526020600020905b8154815290600101906020018083116119b157829003601f168201915b5050505050908060030154908060040154908060050180546119ef90613a79565b80601f0160208091040260200160405190810160405280929190818152602001828054611a1b90613a79565b8015611a685780601f10611a3d57610100808354040283529160200191611a68565b820191906000526020600020905b815481529060010190602001808311611a4b57829003601f168201915b505050505090806006015490806007018054611a8390613a79565b80601f0160208091040260200160405190810160405280929190818152602001828054611aaf90613a79565b8015611afc5780601f10611ad157610100808354040283529160200191611afc565b820191906000526020600020905b815481529060010190602001808311611adf57829003601f168201915b505050505090806008018054611b1190613a79565b80601f0160208091040260200160405190810160405280929190818152602001828054611b3d90613a79565b8015611b8a5780601f10611b5f57610100808354040283529160200191611b8a565b820191906000526020600020905b815481529060010190602001808311611b6d57829003601f168201915b5050506009909301549192505060ff168a565b611ba6826109eb565b611baf81612277565b610a1c8383612312565b6000611bc581336113ee565b611be15760405162461bcd60e51b81526004016108f2906136e6565b600082815260fe60205260409020546001600160a01b031615611c9057600082815260fe6020526040812080546001600160a01b031916815590611c286001830182612a41565b611c36600283016000612a41565b60038201600090556004820160009055600582016000611c569190612a41565b6006820160009055600782016000611c6e9190612a41565b611c7c600883016000612a41565b50600901805460ff1916905550600161075e565b506000919050565b6001600160a01b03918216600090815260986020908152604080832093909416825291909152205490565b600081815260fe60205260408120546001600160a01b03163314611cf95760405162461bcd60e51b81526004016108f29061353e565b600082815260fe60205260409020546001600160a01b031615611c9057600082815260fe602052604090206009015460ff16611d4c57600082815260fe60205260409020600901805460ff191660011790555b600082815260fe6020908152604080832060ff909252909120815481546001600160a01b0319166001600160a01b039091161781556001808301805491830191611d9590613a79565b611da09291906129c7565b506002820181600201908054611db590613a79565b611dc09291906129c7565b5060038201548160030155600482015481600401556005820181600501908054611de990613a79565b611df49291906129c7565b50600682015481600601556007820181600701908054611e1390613a79565b611e1e9291906129c7565b506008820181600801908054611e3390613a79565b611e3e9291906129c7565b506009918201549101805460ff191660ff9092161515919091179055600082815260fe6020526040812080546001600160a01b031916815590611e846001830182612a41565b611e92600283016000612a41565b60038201600090556004820160009055600582016000611eb29190612a41565b6006820160009055600782016000611eca9190612a41565b611ed8600883016000612a41565b50600901805460ff191690556040517fb24ed87c676418c268d51d484f3aa6c8da9b3fc08411fb509e05c342cefbcd5990611f14908490613264565b60405180910390a150600161075e565b60ff60205260009081526040902080546001820180546001600160a01b0390921692916118c790613a79565b6000611f5a612043565b600083815260fe60205260409020546001600160a01b03908116911614611f935760405162461bcd60e51b81526004016108f29061366a565b50600090815260fe60205260409020600901805460ff81161560ff19909116179055600190565b600054610100900460ff1681565b6000805b825181101561202057828181518110611ff557634e487b7160e01b600052603260045260246000fd5b602002602001015184141561200e576001915050610813565b8061201881613ab4565b915050611fcc565b5060009392505050565b6001600160e01b031981166301ffc9a760e01b14919050565b3390565b6001600160a01b03831661206d5760405162461bcd60e51b81526004016108f290613709565b6001600160a01b0382166120935760405162461bcd60e51b81526004016108f290613429565b6001600160a01b0380841660008181526098602090815260408083209487168084529490915290819020849055517f8c5be1e5ebec7d5bd14f71427d1e84f3dd0314c0f7b2291e5b200ac8c7c3b925906120ee908590613264565b60405180910390a3505050565b600260c954141561211e5760405162461bcd60e51b81526004016108f290613798565b600260c955565b600160c955565b60006121388484611c98565b9050600019811461217057818110156121635760405162461bcd60e51b81526004016108f2906134c1565b6121708484848403612047565b50505050565b6001600160a01b03831661219c5760405162461bcd60e51b81526004016108f2906136a1565b6001600160a01b0382166121c25760405162461bcd60e51b81526004016108f2906133a4565b6121cd838383610a1c565b6001600160a01b038316600090815260976020526040902054818110156122065760405162461bcd60e51b81526004016108f2906134f8565b6001600160a01b0380851660008181526097602052604080822086860390559286168082529083902080548601905591517fddf252ad1be2c89b69c2b068fc378daa952ba7f163c4a11628f55a4df523b3ef90612264908690613264565b60405180910390a3612170848484610a1c565b61228881612283612043565b6126b0565b50565b61229582826113ee565b6109b95760008281526065602090815260408083206001600160a01b03851684529091529020805460ff191660011790556122ce612043565b6001600160a01b0316816001600160a01b0316837f2f8788117e7eff1d82e926ec794901d17c78024a50270940304540a733656f0d60405160405180910390a45050565b61231c82826113ee565b156109b95760008281526065602090815260408083206001600160a01b03851684529091529020805460ff19169055612353612043565b6001600160a01b0316816001600160a01b0316837ff6391f5c32d9c69d2a47ea670b442974b53935d1edc7fd64eb21e047a839171b60405160405180910390a45050565b600080826001600160a01b0316803b806020016040519081016040528181526000908060200190933c511192915050565b6109b9828261228b565b600054610100900460ff166123f95760405162461bcd60e51b81526004016108f29061374d565b565b6000835b838210156125165760008542338686866040516020016124239594939291906130f1565b6040516020818303038152906040528051906020012060001c6124469190613acf565b6124519060016139e8565b90506124c481610100600060fc5481526020019081526020016000206001018054806020026020016040519081016040528092919081815260200182805480156124ba57602002820191906000526020600020905b8154815260200190600101908083116124a6575b5050505050611fc8565b6125025760fc5460009081526101006020908152604082206001908101805491820181558352912001819055826124fa81613ab4565b935050612510565b8161250c81613ab4565b9250505b506123ff565b5050505050565b6000835b8382101561251657600085423385858860405160200161254595949392919061313c565b6040516020818303038152906040528051906020012060001c6125689190613acf565b6125739060016139e8565b90506125e481610100600060fc5481526020019081526020016000206001018054806020026020016040519081016040528092919081815260200182805480156124ba57602002820191906000526020600020908154815260200190600101908083116124a6575050505050611fc8565b15801561265d575061265b81610100600060fc5481526020019081526020016000206002018054806020026020016040519081016040528092919081815260200182805480156124ba57602002820191906000526020600020908154815260200190600101908083116124a6575050505050611fc8565b155b1561269c5760fc54600090815261010060209081526040822060020180546001810182559083529120018190558261269481613ab4565b9350506126aa565b816126a681613ab4565b9250505b50612521565b6126ba82826113ee565b6109b9576126c781612709565b6126d283602061271b565b6040516020016126e392919061307c565b60408051601f198184030181529082905262461bcd60e51b82526108f29160040161327b565b606061075b6001600160a01b03831660145b6060600061272a836002613a00565b6127359060026139e8565b67ffffffffffffffff81111561275b57634e487b7160e01b600052604160045260246000fd5b6040519080825280601f01601f191660200182016040528015612785576020820181803683370190505b509050600360fc1b816000815181106127ae57634e487b7160e01b600052603260045260246000fd5b60200101906001600160f81b031916908160001a905350600f60fb1b816001815181106127eb57634e487b7160e01b600052603260045260246000fd5b60200101906001600160f81b031916908160001a905350600061280f846002613a00565b61281a9060016139e8565b90505b60018111156128ae576f181899199a1a9b1b9c1cb0b131b232b360811b85600f166010811061285c57634e487b7160e01b600052603260045260246000fd5b1a60f81b82828151811061288057634e487b7160e01b600052603260045260246000fd5b60200101906001600160f81b031916908160001a90535060049490941c936128a781613a62565b905061281d565b5083156128cd5760405162461bcd60e51b81526004016108f29061336f565b9392505050565b6040518060a0016040528060008152602001606081526020016060815260200160608152602001600081525090565b82805461290f90613a79565b90600052602060002090601f0160209004810192826129315760008555612977565b82601f1061294a57805160ff1916838001178555612977565b82800160010185558215612977579182015b8281111561297757825182559160200191906001019061295c565b50612983929150612a79565b5090565b8280548282559060005260206000209081019282156129775760005260206000209182015b828111156129775782548255916001019190600101906129ac565b8280546129d390613a79565b90600052602060002090601f0160209004810192826129f55760008555612977565b82601f10612a065780548555612977565b8280016001018555821561297757600052602060002091601f01602090048201828111156129775782548255916001019190600101906129ac565b508054612a4d90613a79565b6000825580601f10612a5f5750612288565b601f01602090049060005260206000209081019061228891905b5b808211156129835760008155600101612a7a565b80356001600160a01b038116811461075e57600080fd5b8035801515811461075e57600080fd5b600082601f830112612ac5578081fd5b813567ffffffffffffffff811115612adf57612adf613b05565b612af2601f8201601f191660200161398e565b818152846020838601011115612b06578283fd5b816020850160208301379081016020019190915292915050565b600060208284031215612b31578081fd5b6128cd82612a8e565b60008060408385031215612b4c578081fd5b612b5583612a8e565b9150612b6360208401612a8e565b90509250929050565b600080600060608486031215612b80578081fd5b612b8984612a8e565b9250612b9760208501612a8e565b9150604084013590509250925092565b60008060408385031215612bb9578182fd5b612bc283612a8e565b946020939093013593505050565b60008060408385031215612be2578182fd5b823567ffffffffffffffff811115612bf8578283fd5b8301601f81018513612c08578283fd5b80356020612c1d612c18836139b8565b61398e565b82815281810190848301838502860184018a1015612c39578788fd5b8795505b84861015612c6257612c4e81612a8e565b835260019590950194918301918301612c3d565b509550612c729050868201612a8e565b93505050509250929050565b600060208284031215612c8f578081fd5b5035919050565b60008060408385031215612ca8578182fd5b82359150612b6360208401612a8e565b600060208284031215612cc9578081fd5b81356001600160e01b0319811681146128cd578182fd5b600060208284031215612cf1578081fd5b813567ffffffffffffffff811115612d07578182fd5b612d1384828501612ab5565b949350505050565b6000806000806000806000806000806101408b8d031215612d3a578586fd5b8a3567ffffffffffffffff80821115612d51578788fd5b612d5d8e838f01612ab5565b9b5060208d0135915080821115612d72578788fd5b612d7e8e838f01612ab5565b9a5060408d0135995060608d0135985060808d0135915080821115612da1578788fd5b612dad8e838f01612ab5565b975060a08d0135965060c08d0135915080821115612dc9578586fd5b612dd58e838f01612ab5565b955060e08d0135915080821115612dea578485fd5b612df68e838f01612ab5565b94506101008d0135915080821115612e0c578384fd5b50612e198d828e01612ab5565b925050612e296101208c01612aa5565b90509295989b9194979a5092959850565b600080600080600060a08688031215612e51578283fd5b853567ffffffffffffffff811115612e67578384fd5b612e7388828901612ab5565b9860208801359850604088013597606081013597506080013595509350505050565b600060208284031215612ea6578081fd5b5051919050565b60008060408385031215612ebf578182fd5b8235915060208084013567ffffffffffffffff811115612edd578283fd5b8401601f81018613612eed578283fd5b8035612efb612c18826139b8565b81815283810190838501858402850186018a1015612f17578687fd5b8694505b83851015612f39578035835260019490940193918501918501612f1b565b5080955050505050509250929050565b6000815180845260208085019450808401835b83811015612f7857815187529582019590820190600101612f5c565b509495945050505050565b6000815480845260208085019450838352808320835b83811015612f7857815487529582019560019182019101612f99565b60008151808452612fcd816020860160208601613a36565b601f01601f19169290920160200192915050565b8154600090819060028104600180831680612ffd57607f831692505b602080841082141561301d57634e487b7160e01b87526022600452602487fd5b81801561303157600181146130425761306e565b60ff1986168952848901965061306e565b61304b8a6139dc565b885b868110156130665781548b82015290850190830161304d565b505084890196505b509498975050505050505050565b60007f416363657373436f6e74726f6c3a206163636f756e7420000000000000000000825283516130b4816017850160208801613a36565b7001034b99036b4b9b9b4b733903937b6329607d1b60179184019182015283516130e5816028840160208801613a36565b01602801949350505050565b60008682526bffffffffffffffffffffffff198660601b1660208301528451613121816034850160208901613a36565b90910160348101939093525060548201526074019392505050565b60008682526bffffffffffffffffffffffff198660601b1660208301528460348301528360548301528251613178816074850160208701613a36565b919091016074019695505050505050565b6001600160a01b0391909116815260200190565b6001600160a01b03929092168252602082015260400190565b6001600160a01b038b168152610140602082018190526000906131db8382018d612fb5565b905082810360408401526131ef818c612fb5565b905089606084015288608084015282810360a084015261320f8189612fb5565b90508660c084015282810360e08401526132298187612fb5565b905082810361010084015261323e8186612fb5565b9150508215156101208301529b9a5050505050505050505050565b901515815260200190565b90815260200190565b60ff91909116815260200190565b6000602082526128cd6020830184612fb5565b600060a082526132a160a0830188612fb5565b82810360208401526132b38188612fb5565b905082810360408401526132c78187612fb5565b905084606084015282810360808401526132e18185612fb5565b98975050505050505050565b6020808252601b908201527f596f752063616e6e6f74207375626d697420646f63756d656e74730000000000604082015260600190565b6020808252602b908201527f546f74616c20706c61796572732073686f756c6420626520677265617465722060408201526a7468612077696e6e65727360a81b606082015260800190565b6020808252818101527f537472696e67733a20686578206c656e67746820696e73756666696369656e74604082015260600190565b60208082526023908201527f45524332303a207472616e7366657220746f20746865207a65726f206164647260408201526265737360e81b606082015260800190565b60208082526022908201527f45524332303a206275726e20616d6f756e7420657863656564732062616c616e604082015261636560f01b606082015260800190565b60208082526022908201527f45524332303a20617070726f766520746f20746865207a65726f206164647265604082015261737360f01b606082015260800190565b60208082526036908201527f546f74616c20706c61796572732073686f756c642062652067726561746572206040820152757468612077696e6e6572732b616c7465726e6174657360501b606082015260800190565b6020808252601d908201527f45524332303a20696e73756666696369656e7420616c6c6f77616e6365000000604082015260600190565b60208082526026908201527f45524332303a207472616e7366657220616d6f756e7420657863656564732062604082015265616c616e636560d01b606082015260800190565b6020808252601590820152742cb7ba9030b932903737ba103a34329037bbb732b960591b604082015260600190565b60208082526017908201527f426c6f636b546f57696e3a20484153485f455849535453000000000000000000604082015260600190565b6020808252602e908201527f496e697469616c697a61626c653a20636f6e747261637420697320616c72656160408201526d191e481a5b9a5d1a585b1a5e995960921b606082015260800190565b60208082526018908201527f546869732066756e6374696f6e2069732070617961626c650000000000000000604082015260600190565b60208082526021908201527f45524332303a206275726e2066726f6d20746865207a65726f206164647265736040820152607360f81b606082015260800190565b6020808252601e908201527f426c6f636b546f57696e3a204e4f545f4f574e45525f444f43554d454e540000604082015260600190565b60208082526025908201527f45524332303a207472616e736665722066726f6d20746865207a65726f206164604082015264647265737360d81b606082015260800190565b6020808252600990820152682737ba1037bbb732b960b91b604082015260600190565b60208082526024908201527f45524332303a20617070726f76652066726f6d20746865207a65726f206164646040820152637265737360e01b606082015260800190565b6020808252602b908201527f496e697469616c697a61626c653a20636f6e7472616374206973206e6f74206960408201526a6e697469616c697a696e6760a81b606082015260800190565b6020808252601f908201527f5265656e7472616e637947756172643a207265656e7472616e742063616c6c00604082015260600190565b60208082526025908201527f45524332303a2064656372656173656420616c6c6f77616e63652062656c6f77604082015264207a65726f60d81b606082015260800190565b6020808252602f908201527f416363657373436f6e74726f6c3a2063616e206f6e6c792072656e6f756e636560408201526e103937b632b9903337b91039b2b63360891b606082015260800190565b6020808252601f908201527f45524332303a206d696e7420746f20746865207a65726f206164647265737300604082015260600190565b60006020825282516020830152602083015160a060408401526138c060c0840182612f49565b90506040840151601f19808584030160608601526138de8383612f49565b92506060860151915080858403016080860152506138fc8282612fb5565b915050608084015160a08401528091505092915050565b600086825260a0602083015261392c60a0830187612f83565b828103604084015261393e8187612f83565b905082810360608401526139528186612fb5565b9150508260808301529695505050505050565b60008482526060602083015261397e6060830185612fb5565b9050826040830152949350505050565b60405181810167ffffffffffffffff811182821017156139b0576139b0613b05565b604052919050565b600067ffffffffffffffff8211156139d2576139d2613b05565b5060209081020190565b60009081526020902090565b600082198211156139fb576139fb613aef565b500190565b6000816000190483118215151615613a1a57613a1a613aef565b500290565b600082821015613a3157613a31613aef565b500390565b60005b83811015613a51578181015183820152602001613a39565b838111156121705750506000910152565b600081613a7157613a71613aef565b506000190190565b600281046001821680613a8d57607f821691505b60208210811415613aae57634e487b7160e01b600052602260045260246000fd5b50919050565b6000600019821415613ac857613ac8613aef565b5060010190565b600082613aea57634e487b7160e01b81526012600452602481fd5b500690565b634e487b7160e01b600052601160045260246000fd5b634e487b7160e01b600052604160045260246000fdfea264697066735822122075ce7e54192ba0e66119b01cc553855328cad2ca7b09eb636d81b2848a8c2e6364736f6c63430008000033",
  "devdoc": {
    "author": "Crisol Cova",
    "events": {
      "DocumentSubmitted(address,string,string,string,uint256,string)": {
        "details": "Emitted when `approval' submits a document."
      }
    },
    "kind": "dev",
    "methods": {
      "_burn(address,uint256)": {
        "details": "Destroys `amount` tokens from `account`, reducing the total supply. Emits a {Transfer} event with `to` set to the zero address. Requirements: - `account` cannot be the zero address. - `account` must have at least `amount` tokens."
      },
      "_mint(address,uint256)": {
        "details": "Creates `amount` tokens and assigns them to `account`, increasing the total supply. Emits a {Transfer} event with `from` set to the zero address. Requirements: - `account` cannot be the zero address."
      },
      "allowance(address,address)": {
        "details": "See {IERC20-allowance}."
      },
      "approve(address,uint256)": {
        "details": "See {IERC20-approve}. NOTE: If `amount` is the maximum `uint256`, the allowance is not updated on `transferFrom`. This is semantically equivalent to an infinite approval. Requirements: - `spender` cannot be the zero address."
      },
      "balanceOf(address)": {
        "details": "See {IERC20-balanceOf}."
      },
      "decimals()": {
        "details": "Returns the number of decimals used to get its user representation. For example, if `decimals` equals `2`, a balance of `505` tokens should be displayed to a user as `5.05` (`505 / 10 ** 2`). Tokens usually opt for a value of 18, imitating the relationship between Ether and Wei. This is the value {ERC20} uses, unless this function is overridden; NOTE: This information is only used for _display_ purposes: it in no way affects any of the arithmetic of the contract, including {IERC20-balanceOf} and {IERC20-transfer}."
      },
      "decreaseAllowance(address,uint256)": {
        "details": "Atomically decreases the allowance granted to `spender` by the caller. This is an alternative to {approve} that can be used as a mitigation for problems described in {IERC20-approve}. Emits an {Approval} event indicating the updated allowance. Requirements: - `spender` cannot be the zero address. - `spender` must have allowance for the caller of at least `subtractedValue`."
      },
      "getRoleAdmin(bytes32)": {
        "details": "Returns the admin role that controls `role`. See {grantRole} and {revokeRole}. To change a role's admin, use {_setRoleAdmin}."
      },
      "grantRole(bytes32,address)": {
        "details": "Grants `role` to `account`. If `account` had not been already granted `role`, emits a {RoleGranted} event. Requirements: - the caller must have ``role``'s admin role. May emit a {RoleGranted} event."
      },
      "hasRole(bytes32,address)": {
        "details": "Returns `true` if `account` has been granted `role`."
      },
      "increaseAllowance(address,uint256)": {
        "details": "Atomically increases the allowance granted to `spender` by the caller. This is an alternative to {approve} that can be used as a mitigation for problems described in {IERC20-approve}. Emits an {Approval} event indicating the updated allowance. Requirements: - `spender` cannot be the zero address."
      },
      "name()": {
        "details": "Returns the name of the token."
      },
      "renounceRole(bytes32,address)": {
        "details": "Revokes `role` from the calling account. Roles are often managed via {grantRole} and {revokeRole}: this function's purpose is to provide a mechanism for accounts to lose their privileges if they are compromised (such as when a trusted device is misplaced). If the calling account had been revoked `role`, emits a {RoleRevoked} event. Requirements: - the caller must be `account`. May emit a {RoleRevoked} event."
      },
      "revokeRole(bytes32,address)": {
        "details": "Revokes `role` from `account`. If `account` had been granted `role`, emits a {RoleRevoked} event. Requirements: - the caller must have ``role``'s admin role. May emit a {RoleRevoked} event."
      },
      "submitDocument(string,string,uint256,uint256,string,uint256,string,string,string,bool)": {
        "params": {
          "explorerLink": "Link of the document hash in the explorer",
          "ext": "Extension of the document (ex: .pdf .doc .txt) Emits a {DocumentSubmitted} event.",
          "hash": "Hash generated by the IPFS",
          "ipfsLink": "Link of the document hash in the IPFS",
          "name": "Name of the company/user.",
          "promo": "Description of the promo.",
          "uploadedAt": "Timestamp for the generated document",
          "validityEnd": "Timestampt for the validity end, in unix",
          "validityStart": "Timestamp for the validity start, in unix"
        }
      },
      "supportsInterface(bytes4)": {
        "details": "See {IERC165-supportsInterface}."
      },
      "symbol()": {
        "details": "Returns the symbol of the token, usually a shorter version of the name."
      },
      "totalSupply()": {
        "details": "See {IERC20-totalSupply}."
      },
      "transfer(address,uint256)": {
        "details": "See {IERC20-transfer}. Requirements: - `to` cannot be the zero address. - the caller must have a balance of at least `amount`."
      },
      "transferFrom(address,address,uint256)": {
        "details": "See {IERC20-transferFrom}. Emits an {Approval} event indicating the updated allowance. This is not required by the EIP. See the note at the beginning of {ERC20}. NOTE: Does not update the allowance if the current allowance is the maximum `uint256`. Requirements: - `from` and `to` cannot be the zero address. - `from` must have a balance of at least `amount`. - the caller must have allowance for ``from``'s tokens of at least `amount`."
      }
    },
    "stateVariables": {
      "documentsCount": {
        "return": "The counter of the documents."
      }
    },
    "title": "BlockToWin Platform",
    "version": 1
  },
  "userdoc": {
    "kind": "user",
    "methods": {
      "cancelDocument(uint256)": {
        "notice": "cancel a document only the approval"
      },
      "changeDocumentVisibility(uint256)": {
        "notice": "Change the visibility of a document if you are the owner of that document, if you aren't the owner, it's just returning false."
      },
      "changeMasterWallet(address)": {
        "notice": "change masterwallet"
      },
      "currentDataLotteryId()": {
        "notice": "the current id to reference the lottery"
      },
      "dataLotteryRecord(uint256)": {
        "notice": "mapping ids of lottery to struct to storage all the lotteries"
      },
      "documentsCount()": {
        "notice": "Retrieves the amount of documents submitted."
      },
      "registerAnUser(uint256,address)": {
        "notice": "this function register an user to allow them submit documents"
      },
      "removeDocument(uint256)": {
        "notice": "Removes a document at `index` in the mapping of documents"
      },
      "shakeTheNumbers(string,uint256,uint256,uint256,uint256)": {
        "notice": "turn on the lottery and storage the resultsreturns the winners, alternate and hashExcel provide"
      },
      "submitDocument(string,string,uint256,uint256,string,uint256,string,string,string,bool)": {
        "notice": "Allows to an approval submits a document."
      },
      "verifyDocument(string)": {
        "notice": "Returns true if `hash` already exist in a document"
      }
    },
    "notice": "BlockToWin allows you to submit documents that can be verified in IPFS",
    "version": 1
  },
  "storageLayout": {
    "storage": [
      {
        "astId": 413,
        "contract": "contracts/BlockToWinV2.sol:BlockToWinV2",
        "label": "_initialized",
        "offset": 0,
        "slot": "0",
        "type": "t_uint8"
      },
      {
        "astId": 415,
        "contract": "contracts/BlockToWinV2.sol:BlockToWinV2",
        "label": "_initializing",
        "offset": 1,
        "slot": "0",
        "type": "t_bool"
      },
      {
        "astId": 1684,
        "contract": "contracts/BlockToWinV2.sol:BlockToWinV2",
        "label": "__gap",
        "offset": 0,
        "slot": "1",
        "type": "t_array(t_uint256)50_storage"
      },
      {
        "astId": 1903,
        "contract": "contracts/BlockToWinV2.sol:BlockToWinV2",
        "label": "__gap",
        "offset": 0,
        "slot": "51",
        "type": "t_array(t_uint256)50_storage"
      },
      {
        "astId": 39,
        "contract": "contracts/BlockToWinV2.sol:BlockToWinV2",
        "label": "_roles",
        "offset": 0,
        "slot": "101",
        "type": "t_mapping(t_bytes32,t_struct(RoleData)34_storage)"
      },
      {
        "astId": 334,
        "contract": "contracts/BlockToWinV2.sol:BlockToWinV2",
        "label": "__gap",
        "offset": 0,
        "slot": "102",
        "type": "t_array(t_uint256)49_storage"
      },
      {
        "astId": 663,
        "contract": "contracts/BlockToWinV2.sol:BlockToWinV2",
        "label": "_balances",
        "offset": 0,
        "slot": "151",
        "type": "t_mapping(t_address,t_uint256)"
      },
      {
        "astId": 669,
        "contract": "contracts/BlockToWinV2.sol:BlockToWinV2",
        "label": "_allowances",
        "offset": 0,
        "slot": "152",
        "type": "t_mapping(t_address,t_mapping(t_address,t_uint256))"
      },
      {
        "astId": 671,
        "contract": "contracts/BlockToWinV2.sol:BlockToWinV2",
        "label": "_totalSupply",
        "offset": 0,
        "slot": "153",
        "type": "t_uint256"
      },
      {
        "astId": 673,
        "contract": "contracts/BlockToWinV2.sol:BlockToWinV2",
        "label": "_name",
        "offset": 0,
        "slot": "154",
        "type": "t_string_storage"
      },
      {
        "astId": 675,
        "contract": "contracts/BlockToWinV2.sol:BlockToWinV2",
        "label": "_symbol",
        "offset": 0,
        "slot": "155",
        "type": "t_string_storage"
      },
      {
        "astId": 1255,
        "contract": "contracts/BlockToWinV2.sol:BlockToWinV2",
        "label": "__gap",
        "offset": 0,
        "slot": "156",
        "type": "t_array(t_uint256)45_storage"
      },
      {
        "astId": 585,
        "contract": "contracts/BlockToWinV2.sol:BlockToWinV2",
        "label": "_status",
        "offset": 0,
        "slot": "201",
        "type": "t_uint256"
      },
      {
        "astId": 643,
        "contract": "contracts/BlockToWinV2.sol:BlockToWinV2",
        "label": "__gap",
        "offset": 0,
        "slot": "202",
        "type": "t_array(t_uint256)49_storage"
      },
      {
        "astId": 2803,
        "contract": "contracts/BlockToWinV2.sol:BlockToWinV2",
        "label": "masterWallet",
        "offset": 0,
        "slot": "251",
        "type": "t_address"
      },
      {
        "astId": 2806,
        "contract": "contracts/BlockToWinV2.sol:BlockToWinV2",
        "label": "currentDataLotteryId",
        "offset": 0,
        "slot": "252",
        "type": "t_uint256"
      },
      {
        "astId": 2809,
        "contract": "contracts/BlockToWinV2.sol:BlockToWinV2",
        "label": "documentsCount",
        "offset": 0,
        "slot": "253",
        "type": "t_uint256"
      },
      {
        "astId": 2848,
        "contract": "contracts/BlockToWinV2.sol:BlockToWinV2",
        "label": "documents",
        "offset": 0,
        "slot": "254",
        "type": "t_mapping(t_uint256,t_struct(Document)2843_storage)"
      },
      {
        "astId": 2853,
        "contract": "contracts/BlockToWinV2.sol:BlockToWinV2",
        "label": "canceledDocuments",
        "offset": 0,
        "slot": "255",
        "type": "t_mapping(t_uint256,t_struct(Document)2843_storage)"
      },
      {
        "astId": 2859,
        "contract": "contracts/BlockToWinV2.sol:BlockToWinV2",
        "label": "dataLotteryRecord",
        "offset": 0,
        "slot": "256",
        "type": "t_mapping(t_uint256,t_struct(DataLottery)2822_storage)"
      },
      {
        "astId": 2863,
        "contract": "contracts/BlockToWinV2.sol:BlockToWinV2",
        "label": "allData",
        "offset": 0,
        "slot": "257",
        "type": "t_array(t_struct(DataLottery)2822_storage)dyn_storage"
      }
    ],
    "types": {
      "t_address": {
        "encoding": "inplace",
        "label": "address",
        "numberOfBytes": "20"
      },
      "t_array(t_struct(DataLottery)2822_storage)dyn_storage": {
        "base": "t_struct(DataLottery)2822_storage",
        "encoding": "dynamic_array",
        "label": "struct BlockToWinV2.DataLottery[]",
        "numberOfBytes": "32"
      },
      "t_array(t_uint256)45_storage": {
        "base": "t_uint256",
        "encoding": "inplace",
        "label": "uint256[45]",
        "numberOfBytes": "1440"
      },
      "t_array(t_uint256)49_storage": {
        "base": "t_uint256",
        "encoding": "inplace",
        "label": "uint256[49]",
        "numberOfBytes": "1568"
      },
      "t_array(t_uint256)50_storage": {
        "base": "t_uint256",
        "encoding": "inplace",
        "label": "uint256[50]",
        "numberOfBytes": "1600"
      },
      "t_array(t_uint256)dyn_storage": {
        "base": "t_uint256",
        "encoding": "dynamic_array",
        "label": "uint256[]",
        "numberOfBytes": "32"
      },
      "t_bool": {
        "encoding": "inplace",
        "label": "bool",
        "numberOfBytes": "1"
      },
      "t_bytes32": {
        "encoding": "inplace",
        "label": "bytes32",
        "numberOfBytes": "32"
      },
      "t_mapping(t_address,t_bool)": {
        "encoding": "mapping",
        "key": "t_address",
        "label": "mapping(address => bool)",
        "numberOfBytes": "32",
        "value": "t_bool"
      },
      "t_mapping(t_address,t_mapping(t_address,t_uint256))": {
        "encoding": "mapping",
        "key": "t_address",
        "label": "mapping(address => mapping(address => uint256))",
        "numberOfBytes": "32",
        "value": "t_mapping(t_address,t_uint256)"
      },
      "t_mapping(t_address,t_uint256)": {
        "encoding": "mapping",
        "key": "t_address",
        "label": "mapping(address => uint256)",
        "numberOfBytes": "32",
        "value": "t_uint256"
      },
      "t_mapping(t_bytes32,t_struct(RoleData)34_storage)": {
        "encoding": "mapping",
        "key": "t_bytes32",
        "label": "mapping(bytes32 => struct AccessControlUpgradeable.RoleData)",
        "numberOfBytes": "32",
        "value": "t_struct(RoleData)34_storage"
      },
      "t_mapping(t_uint256,t_struct(DataLottery)2822_storage)": {
        "encoding": "mapping",
        "key": "t_uint256",
        "label": "mapping(uint256 => struct BlockToWinV2.DataLottery)",
        "numberOfBytes": "32",
        "value": "t_struct(DataLottery)2822_storage"
      },
      "t_mapping(t_uint256,t_struct(Document)2843_storage)": {
        "encoding": "mapping",
        "key": "t_uint256",
        "label": "mapping(uint256 => struct BlockToWinV2.Document)",
        "numberOfBytes": "32",
        "value": "t_struct(Document)2843_storage"
      },
      "t_string_storage": {
        "encoding": "bytes",
        "label": "string",
        "numberOfBytes": "32"
      },
      "t_struct(DataLottery)2822_storage": {
        "encoding": "inplace",
        "label": "struct BlockToWinV2.DataLottery",
        "members": [
          {
            "astId": 2811,
            "contract": "contracts/BlockToWinV2.sol:BlockToWinV2",
            "label": "dataLotteryId",
            "offset": 0,
            "slot": "0",
            "type": "t_uint256"
          },
          {
            "astId": 2814,
            "contract": "contracts/BlockToWinV2.sol:BlockToWinV2",
            "label": "winners",
            "offset": 0,
            "slot": "1",
            "type": "t_array(t_uint256)dyn_storage"
          },
          {
            "astId": 2817,
            "contract": "contracts/BlockToWinV2.sol:BlockToWinV2",
            "label": "alternates",
            "offset": 0,
            "slot": "2",
            "type": "t_array(t_uint256)dyn_storage"
          },
          {
            "astId": 2819,
            "contract": "contracts/BlockToWinV2.sol:BlockToWinV2",
            "label": "ipfsDataBack",
            "offset": 0,
            "slot": "3",
            "type": "t_string_storage"
          },
          {
            "astId": 2821,
            "contract": "contracts/BlockToWinV2.sol:BlockToWinV2",
            "label": "idDocument",
            "offset": 0,
            "slot": "4",
            "type": "t_uint256"
          }
        ],
        "numberOfBytes": "160"
      },
      "t_struct(Document)2843_storage": {
        "encoding": "inplace",
        "label": "struct BlockToWinV2.Document",
        "members": [
          {
            "astId": 2824,
            "contract": "contracts/BlockToWinV2.sol:BlockToWinV2",
            "label": "owner",
            "offset": 0,
            "slot": "0",
            "type": "t_address"
          },
          {
            "astId": 2826,
            "contract": "contracts/BlockToWinV2.sol:BlockToWinV2",
            "label": "name",
            "offset": 0,
            "slot": "1",
            "type": "t_string_storage"
          },
          {
            "astId": 2828,
            "contract": "contracts/BlockToWinV2.sol:BlockToWinV2",
            "label": "promo",
            "offset": 0,
            "slot": "2",
            "type": "t_string_storage"
          },
          {
            "astId": 2830,
            "contract": "contracts/BlockToWinV2.sol:BlockToWinV2",
            "label": "validityStart",
            "offset": 0,
            "slot": "3",
            "type": "t_uint256"
          },
          {
            "astId": 2832,
            "contract": "contracts/BlockToWinV2.sol:BlockToWinV2",
            "label": "validityEnd",
            "offset": 0,
            "slot": "4",
            "type": "t_uint256"
          },
          {
            "astId": 2834,
            "contract": "contracts/BlockToWinV2.sol:BlockToWinV2",
            "label": "hash",
            "offset": 0,
            "slot": "5",
            "type": "t_string_storage"
          },
          {
            "astId": 2836,
            "contract": "contracts/BlockToWinV2.sol:BlockToWinV2",
            "label": "uploadedAt",
            "offset": 0,
            "slot": "6",
            "type": "t_uint256"
          },
          {
            "astId": 2838,
            "contract": "contracts/BlockToWinV2.sol:BlockToWinV2",
            "label": "explorerLink",
            "offset": 0,
            "slot": "7",
            "type": "t_string_storage"
          },
          {
            "astId": 2840,
            "contract": "contracts/BlockToWinV2.sol:BlockToWinV2",
            "label": "ipfsLink",
            "offset": 0,
            "slot": "8",
            "type": "t_string_storage"
          },
          {
            "astId": 2842,
            "contract": "contracts/BlockToWinV2.sol:BlockToWinV2",
            "label": "isVisible",
            "offset": 0,
            "slot": "9",
            "type": "t_bool"
          }
        ],
        "numberOfBytes": "320"
      },
      "t_struct(RoleData)34_storage": {
        "encoding": "inplace",
        "label": "struct AccessControlUpgradeable.RoleData",
        "members": [
          {
            "astId": 31,
            "contract": "contracts/BlockToWinV2.sol:BlockToWinV2",
            "label": "members",
            "offset": 0,
            "slot": "0",
            "type": "t_mapping(t_address,t_bool)"
          },
          {
            "astId": 33,
            "contract": "contracts/BlockToWinV2.sol:BlockToWinV2",
            "label": "adminRole",
            "offset": 0,
            "slot": "1",
            "type": "t_bytes32"
          }
        ],
        "numberOfBytes": "64"
      },
      "t_uint256": {
        "encoding": "inplace",
        "label": "uint256",
        "numberOfBytes": "32"
      },
      "t_uint8": {
        "encoding": "inplace",
        "label": "uint8",
        "numberOfBytes": "1"
      }
    }
  }
}