{
  "address": "0x07E73c35684bBd7c106287b70c5B8269d6E64079",
  "abi": [
    {
      "anonymous": false,
      "inputs": [
        {
          "indexed": true,
          "internalType": "address",
          "name": "owner",
          "type": "address"
        },
        {
          "indexed": true,
          "internalType": "address",
          "name": "spender",
          "type": "address"
        },
        {
          "indexed": false,
          "internalType": "uint256",
          "name": "value",
          "type": "uint256"
        }
      ],
      "name": "Approval",
      "type": "event"
    },
    {
      "anonymous": false,
      "inputs": [
        {
          "indexed": false,
          "internalType": "uint256",
          "name": "index",
          "type": "uint256"
        }
      ],
      "name": "CanceledDocument",
      "type": "event"
    },
    {
      "anonymous": false,
      "inputs": [
        {
          "indexed": true,
          "internalType": "address",
          "name": "approval",
          "type": "address"
        },
        {
          "indexed": false,
          "internalType": "string",
          "name": "name",
          "type": "string"
        },
        {
          "indexed": false,
          "internalType": "string",
          "name": "promo",
          "type": "string"
        },
        {
          "indexed": false,
          "internalType": "string",
          "name": "hash",
          "type": "string"
        },
        {
          "indexed": false,
          "internalType": "uint256",
          "name": "uploadedAt",
          "type": "uint256"
        },
        {
          "indexed": false,
          "internalType": "string",
          "name": "ext",
          "type": "string"
        }
      ],
      "name": "DocumentSubmitted",
      "type": "event"
    },
    {
      "anonymous": false,
      "inputs": [
        {
          "indexed": false,
          "internalType": "uint8",
          "name": "version",
          "type": "uint8"
        }
      ],
      "name": "Initialized",
      "type": "event"
    },
    {
      "anonymous": false,
      "inputs": [
        {
          "indexed": false,
          "internalType": "uint256",
          "name": "_players",
          "type": "uint256"
        },
        {
          "indexed": false,
          "internalType": "uint256[]",
          "name": "_winners",
          "type": "uint256[]"
        },
        {
          "indexed": false,
          "internalType": "uint256[]",
          "name": "_alternates",
          "type": "uint256[]"
        },
        {
          "indexed": false,
          "internalType": "string",
          "name": "_ipfsHash",
          "type": "string"
        },
        {
          "indexed": false,
          "internalType": "uint256",
          "name": "",
          "type": "uint256"
        }
      ],
      "name": "NewSort",
      "type": "event"
    },
    {
      "anonymous": false,
      "inputs": [
        {
          "indexed": true,
          "internalType": "bytes32",
          "name": "role",
          "type": "bytes32"
        },
        {
          "indexed": true,
          "internalType": "bytes32",
          "name": "previousAdminRole",
          "type": "bytes32"
        },
        {
          "indexed": true,
          "internalType": "bytes32",
          "name": "newAdminRole",
          "type": "bytes32"
        }
      ],
      "name": "RoleAdminChanged",
      "type": "event"
    },
    {
      "anonymous": false,
      "inputs": [
        {
          "indexed": true,
          "internalType": "bytes32",
          "name": "role",
          "type": "bytes32"
        },
        {
          "indexed": true,
          "internalType": "address",
          "name": "account",
          "type": "address"
        },
        {
          "indexed": true,
          "internalType": "address",
          "name": "sender",
          "type": "address"
        }
      ],
      "name": "RoleGranted",
      "type": "event"
    },
    {
      "anonymous": false,
      "inputs": [
        {
          "indexed": true,
          "internalType": "bytes32",
          "name": "role",
          "type": "bytes32"
        },
        {
          "indexed": true,
          "internalType": "address",
          "name": "account",
          "type": "address"
        },
        {
          "indexed": true,
          "internalType": "address",
          "name": "sender",
          "type": "address"
        }
      ],
      "name": "RoleRevoked",
      "type": "event"
    },
    {
      "anonymous": false,
      "inputs": [
        {
          "indexed": true,
          "internalType": "address",
          "name": "from",
          "type": "address"
        },
        {
          "indexed": true,
          "internalType": "address",
          "name": "to",
          "type": "address"
        },
        {
          "indexed": false,
          "internalType": "uint256",
          "name": "value",
          "type": "uint256"
        }
      ],
      "name": "Transfer",
      "type": "event"
    },
    {
      "inputs": [],
      "name": "DEFAULT_ADMIN_ROLE",
      "outputs": [
        {
          "internalType": "bytes32",
          "name": "",
          "type": "bytes32"
        }
      ],
      "stateMutability": "view",
      "type": "function"
    },
    {
      "inputs": [
        {
          "internalType": "address",
          "name": "account",
          "type": "address"
        },
        {
          "internalType": "uint256",
          "name": "amount",
          "type": "uint256"
        }
      ],
      "name": "_burn",
      "outputs": [],
      "stateMutability": "nonpayable",
      "type": "function"
    },
    {
      "inputs": [],
      "name": "_initialized",
      "outputs": [
        {
          "internalType": "uint8",
          "name": "",
          "type": "uint8"
        }
      ],
      "stateMutability": "view",
      "type": "function"
    },
    {
      "inputs": [],
      "name": "_initializing",
      "outputs": [
        {
          "internalType": "bool",
          "name": "",
          "type": "bool"
        }
      ],
      "stateMutability": "view",
      "type": "function"
    },
    {
      "inputs": [
        {
          "internalType": "address",
          "name": "account",
          "type": "address"
        },
        {
          "internalType": "uint256",
          "name": "amount",
          "type": "uint256"
        }
      ],
      "name": "_mint",
      "outputs": [],
      "stateMutability": "nonpayable",
      "type": "function"
    },
    {
      "inputs": [
        {
          "internalType": "uint256",
          "name": "",
          "type": "uint256"
        }
      ],
      "name": "allData",
      "outputs": [
        {
          "internalType": "uint256",
          "name": "dataLotteryId",
          "type": "uint256"
        },
        {
          "internalType": "string",
          "name": "ipfsDataBack",
          "type": "string"
        },
        {
          "internalType": "uint256",
          "name": "idDocument",
          "type": "uint256"
        }
      ],
      "stateMutability": "view",
      "type": "function"
    },
    {
      "inputs": [
        {
          "internalType": "address",
          "name": "owner",
          "type": "address"
        },
        {
          "internalType": "address",
          "name": "spender",
          "type": "address"
        }
      ],
      "name": "allowance",
      "outputs": [
        {
          "internalType": "uint256",
          "name": "",
          "type": "uint256"
        }
      ],
      "stateMutability": "view",
      "type": "function"
    },
    {
      "inputs": [
        {
          "internalType": "address",
          "name": "spender",
          "type": "address"
        },
        {
          "internalType": "uint256",
          "name": "amount",
          "type": "uint256"
        }
      ],
      "name": "approve",
      "outputs": [
        {
          "internalType": "bool",
          "name": "",
          "type": "bool"
        }
      ],
      "stateMutability": "nonpayable",
      "type": "function"
    },
    {
      "inputs": [
        {
          "internalType": "address",
          "name": "account",
          "type": "address"
        }
      ],
      "name": "balanceOf",
      "outputs": [
        {
          "internalType": "uint256",
          "name": "",
          "type": "uint256"
        }
      ],
      "stateMutability": "view",
      "type": "function"
    },
    {
      "inputs": [
        {
          "internalType": "uint256",
          "name": "index",
          "type": "uint256"
        }
      ],
      "name": "cancelDocument",
      "outputs": [
        {
          "internalType": "bool",
          "name": "",
          "type": "bool"
        }
      ],
      "stateMutability": "nonpayable",
      "type": "function"
    },
    {
      "inputs": [
        {
          "internalType": "uint256",
          "name": "",
          "type": "uint256"
        }
      ],
      "name": "canceledDocuments",
      "outputs": [
        {
          "internalType": "address",
          "name": "owner",
          "type": "address"
        },
        {
          "internalType": "string",
          "name": "name",
          "type": "string"
        },
        {
          "internalType": "string",
          "name": "promo",
          "type": "string"
        },
        {
          "internalType": "uint256",
          "name": "validityStart",
          "type": "uint256"
        },
        {
          "internalType": "uint256",
          "name": "validityEnd",
          "type": "uint256"
        },
        {
          "internalType": "string",
          "name": "hash",
          "type": "string"
        },
        {
          "internalType": "uint256",
          "name": "uploadedAt",
          "type": "uint256"
        },
        {
          "internalType": "string",
          "name": "explorerLink",
          "type": "string"
        },
        {
          "internalType": "string",
          "name": "ipfsLink",
          "type": "string"
        },
        {
          "internalType": "bool",
          "name": "isVisible",
          "type": "bool"
        }
      ],
      "stateMutability": "view",
      "type": "function"
    },
    {
      "inputs": [
        {
          "internalType": "uint256",
          "name": "documentIndex",
          "type": "uint256"
        }
      ],
      "name": "changeDocumentVisibility",
      "outputs": [
        {
          "internalType": "bool",
          "name": "",
          "type": "bool"
        }
      ],
      "stateMutability": "nonpayable",
      "type": "function"
    },
    {
      "inputs": [],
      "name": "currentDataLotteryId",
      "outputs": [
        {
          "internalType": "uint256",
          "name": "",
          "type": "uint256"
        }
      ],
      "stateMutability": "view",
      "type": "function"
    },
    {
      "inputs": [
        {
          "internalType": "uint256",
          "name": "",
          "type": "uint256"
        }
      ],
      "name": "dataLotteryRecord",
      "outputs": [
        {
          "internalType": "uint256",
          "name": "dataLotteryId",
          "type": "uint256"
        },
        {
          "internalType": "string",
          "name": "ipfsDataBack",
          "type": "string"
        },
        {
          "internalType": "uint256",
          "name": "idDocument",
          "type": "uint256"
        }
      ],
      "stateMutability": "view",
      "type": "function"
    },
    {
      "inputs": [],
      "name": "decimals",
      "outputs": [
        {
          "internalType": "uint8",
          "name": "",
          "type": "uint8"
        }
      ],
      "stateMutability": "view",
      "type": "function"
    },
    {
      "inputs": [
        {
          "internalType": "address",
          "name": "spender",
          "type": "address"
        },
        {
          "internalType": "uint256",
          "name": "subtractedValue",
          "type": "uint256"
        }
      ],
      "name": "decreaseAllowance",
      "outputs": [
        {
          "internalType": "bool",
          "name": "",
          "type": "bool"
        }
      ],
      "stateMutability": "nonpayable",
      "type": "function"
    },
    {
      "inputs": [
        {
          "internalType": "uint256",
          "name": "",
          "type": "uint256"
        }
      ],
      "name": "documents",
      "outputs": [
        {
          "internalType": "address",
          "name": "owner",
          "type": "address"
        },
        {
          "internalType": "string",
          "name": "name",
          "type": "string"
        },
        {
          "internalType": "string",
          "name": "promo",
          "type": "string"
        },
        {
          "internalType": "uint256",
          "name": "validityStart",
          "type": "uint256"
        },
        {
          "internalType": "uint256",
          "name": "validityEnd",
          "type": "uint256"
        },
        {
          "internalType": "string",
          "name": "hash",
          "type": "string"
        },
        {
          "internalType": "uint256",
          "name": "uploadedAt",
          "type": "uint256"
        },
        {
          "internalType": "string",
          "name": "explorerLink",
          "type": "string"
        },
        {
          "internalType": "string",
          "name": "ipfsLink",
          "type": "string"
        },
        {
          "internalType": "bool",
          "name": "isVisible",
          "type": "bool"
        }
      ],
      "stateMutability": "view",
      "type": "function"
    },
    {
      "inputs": [],
      "name": "documentsCount",
      "outputs": [
        {
          "internalType": "uint256",
          "name": "",
          "type": "uint256"
        }
      ],
      "stateMutability": "view",
      "type": "function"
    },
    {
      "inputs": [
        {
          "internalType": "bytes32",
          "name": "role",
          "type": "bytes32"
        }
      ],
      "name": "getRoleAdmin",
      "outputs": [
        {
          "internalType": "bytes32",
          "name": "",
          "type": "bytes32"
        }
      ],
      "stateMutability": "view",
      "type": "function"
    },
    {
      "inputs": [
        {
          "internalType": "bytes32",
          "name": "role",
          "type": "bytes32"
        },
        {
          "internalType": "address",
          "name": "account",
          "type": "address"
        }
      ],
      "name": "grantRole",
      "outputs": [],
      "stateMutability": "nonpayable",
      "type": "function"
    },
    {
      "inputs": [
        {
          "internalType": "bytes32",
          "name": "role",
          "type": "bytes32"
        },
        {
          "internalType": "address",
          "name": "account",
          "type": "address"
        }
      ],
      "name": "hasRole",
      "outputs": [
        {
          "internalType": "bool",
          "name": "",
          "type": "bool"
        }
      ],
      "stateMutability": "view",
      "type": "function"
    },
    {
      "inputs": [
        {
          "internalType": "address",
          "name": "spender",
          "type": "address"
        },
        {
          "internalType": "uint256",
          "name": "addedValue",
          "type": "uint256"
        }
      ],
      "name": "increaseAllowance",
      "outputs": [
        {
          "internalType": "bool",
          "name": "",
          "type": "bool"
        }
      ],
      "stateMutability": "nonpayable",
      "type": "function"
    },
    {
      "inputs": [
        {
          "internalType": "address[]",
          "name": "admins",
          "type": "address[]"
        }
      ],
      "name": "initialize",
      "outputs": [],
      "stateMutability": "nonpayable",
      "type": "function"
    },
    {
      "inputs": [
        {
          "internalType": "uint256",
          "name": "_number",
          "type": "uint256"
        },
        {
          "internalType": "uint256[]",
          "name": "_array",
          "type": "uint256[]"
        }
      ],
      "name": "isRepeated",
      "outputs": [
        {
          "internalType": "bool",
          "name": "",
          "type": "bool"
        }
      ],
      "stateMutability": "pure",
      "type": "function"
    },
    {
      "inputs": [],
      "name": "name",
      "outputs": [
        {
          "internalType": "string",
          "name": "",
          "type": "string"
        }
      ],
      "stateMutability": "view",
      "type": "function"
    },
    {
      "inputs": [
        {
          "internalType": "uint256",
          "name": "_amountOfDocuments",
          "type": "uint256"
        },
        {
          "internalType": "address",
          "name": "_userAddress",
          "type": "address"
        }
      ],
      "name": "registerAnUser",
      "outputs": [],
      "stateMutability": "payable",
      "type": "function"
    },
    {
      "inputs": [
        {
          "internalType": "uint256",
          "name": "index",
          "type": "uint256"
        }
      ],
      "name": "removeDocument",
      "outputs": [
        {
          "internalType": "bool",
          "name": "",
          "type": "bool"
        }
      ],
      "stateMutability": "nonpayable",
      "type": "function"
    },
    {
      "inputs": [
        {
          "internalType": "bytes32",
          "name": "role",
          "type": "bytes32"
        },
        {
          "internalType": "address",
          "name": "account",
          "type": "address"
        }
      ],
      "name": "renounceRole",
      "outputs": [],
      "stateMutability": "nonpayable",
      "type": "function"
    },
    {
      "inputs": [
        {
          "internalType": "bytes32",
          "name": "role",
          "type": "bytes32"
        },
        {
          "internalType": "address",
          "name": "account",
          "type": "address"
        }
      ],
      "name": "revokeRole",
      "outputs": [],
      "stateMutability": "nonpayable",
      "type": "function"
    },
    {
      "inputs": [],
      "name": "seeCurrentData",
      "outputs": [
        {
          "components": [
            {
              "internalType": "uint256",
              "name": "dataLotteryId",
              "type": "uint256"
            },
            {
              "internalType": "uint256[]",
              "name": "winners",
              "type": "uint256[]"
            },
            {
              "internalType": "uint256[]",
              "name": "alternates",
              "type": "uint256[]"
            },
            {
              "internalType": "string",
              "name": "ipfsDataBack",
              "type": "string"
            },
            {
              "internalType": "uint256",
              "name": "idDocument",
              "type": "uint256"
            }
          ],
          "internalType": "struct BlockToWin.DataLottery",
          "name": "",
          "type": "tuple"
        }
      ],
      "stateMutability": "view",
      "type": "function"
    },
    {
      "inputs": [
        {
          "internalType": "uint256",
          "name": "_id",
          "type": "uint256"
        }
      ],
      "name": "seeDataUnique",
      "outputs": [
        {
          "components": [
            {
              "internalType": "uint256",
              "name": "dataLotteryId",
              "type": "uint256"
            },
            {
              "internalType": "uint256[]",
              "name": "winners",
              "type": "uint256[]"
            },
            {
              "internalType": "uint256[]",
              "name": "alternates",
              "type": "uint256[]"
            },
            {
              "internalType": "string",
              "name": "ipfsDataBack",
              "type": "string"
            },
            {
              "internalType": "uint256",
              "name": "idDocument",
              "type": "uint256"
            }
          ],
          "internalType": "struct BlockToWin.DataLottery",
          "name": "",
          "type": "tuple"
        }
      ],
      "stateMutability": "view",
      "type": "function"
    },
    {
      "inputs": [
        {
          "internalType": "string",
          "name": "_ipfsDataBack",
          "type": "string"
        },
        {
          "internalType": "uint256",
          "name": "_totalPlayers",
          "type": "uint256"
        },
        {
          "internalType": "uint256",
          "name": "_numberOfWinners",
          "type": "uint256"
        },
        {
          "internalType": "uint256",
          "name": "_numberOfAlternates",
          "type": "uint256"
        },
        {
          "internalType": "uint256",
          "name": "_idDocument",
          "type": "uint256"
        }
      ],
      "name": "shakeTheNumbers",
      "outputs": [
        {
          "components": [
            {
              "internalType": "uint256",
              "name": "dataLotteryId",
              "type": "uint256"
            },
            {
              "internalType": "uint256[]",
              "name": "winners",
              "type": "uint256[]"
            },
            {
              "internalType": "uint256[]",
              "name": "alternates",
              "type": "uint256[]"
            },
            {
              "internalType": "string",
              "name": "ipfsDataBack",
              "type": "string"
            },
            {
              "internalType": "uint256",
              "name": "idDocument",
              "type": "uint256"
            }
          ],
          "internalType": "struct BlockToWin.DataLottery",
          "name": "",
          "type": "tuple"
        }
      ],
      "stateMutability": "nonpayable",
      "type": "function"
    },
    {
      "inputs": [
        {
          "internalType": "string",
          "name": "name",
          "type": "string"
        },
        {
          "internalType": "string",
          "name": "promo",
          "type": "string"
        },
        {
          "internalType": "uint256",
          "name": "validityStart",
          "type": "uint256"
        },
        {
          "internalType": "uint256",
          "name": "validityEnd",
          "type": "uint256"
        },
        {
          "internalType": "string",
          "name": "hash",
          "type": "string"
        },
        {
          "internalType": "uint256",
          "name": "uploadedAt",
          "type": "uint256"
        },
        {
          "internalType": "string",
          "name": "explorerLink",
          "type": "string"
        },
        {
          "internalType": "string",
          "name": "ipfsLink",
          "type": "string"
        },
        {
          "internalType": "string",
          "name": "ext",
          "type": "string"
        },
        {
          "internalType": "bool",
          "name": "isVisible",
          "type": "bool"
        }
      ],
      "name": "submitDocument",
      "outputs": [],
      "stateMutability": "nonpayable",
      "type": "function"
    },
    {
      "inputs": [
        {
          "internalType": "bytes4",
          "name": "interfaceId",
          "type": "bytes4"
        }
      ],
      "name": "supportsInterface",
      "outputs": [
        {
          "internalType": "bool",
          "name": "",
          "type": "bool"
        }
      ],
      "stateMutability": "view",
      "type": "function"
    },
    {
      "inputs": [],
      "name": "symbol",
      "outputs": [
        {
          "internalType": "string",
          "name": "",
          "type": "string"
        }
      ],
      "stateMutability": "view",
      "type": "function"
    },
    {
      "inputs": [],
      "name": "totalSupply",
      "outputs": [
        {
          "internalType": "uint256",
          "name": "",
          "type": "uint256"
        }
      ],
      "stateMutability": "view",
      "type": "function"
    },
    {
      "inputs": [
        {
          "internalType": "address",
          "name": "to",
          "type": "address"
        },
        {
          "internalType": "uint256",
          "name": "amount",
          "type": "uint256"
        }
      ],
      "name": "transfer",
      "outputs": [
        {
          "internalType": "bool",
          "name": "",
          "type": "bool"
        }
      ],
      "stateMutability": "nonpayable",
      "type": "function"
    },
    {
      "inputs": [
        {
          "internalType": "address",
          "name": "from",
          "type": "address"
        },
        {
          "internalType": "address",
          "name": "to",
          "type": "address"
        },
        {
          "internalType": "uint256",
          "name": "amount",
          "type": "uint256"
        }
      ],
      "name": "transferFrom",
      "outputs": [
        {
          "internalType": "bool",
          "name": "",
          "type": "bool"
        }
      ],
      "stateMutability": "nonpayable",
      "type": "function"
    },
    {
      "inputs": [
        {
          "internalType": "string",
          "name": "hash",
          "type": "string"
        }
      ],
      "name": "verifyDocument",
      "outputs": [
        {
          "internalType": "bool",
          "name": "",
          "type": "bool"
        }
      ],
      "stateMutability": "view",
      "type": "function"
    }
  ],
  "transactionHash": "0xee710f4442899a6a62fdc16b5b90fb916098269cf8cb593944d68aca9e8b620a",
  "args": [],
  "numDeployments": 1,
  "solcInputHash": "2fdb2072b7c49b51abf01db1280bd08c",
  "bytecode": "0x608060405234801561001057600080fd5b50613a7a806100206000396000f3fe6080604052600436106102305760003560e01c806370a082311161012e578063beee5eb7116100ab578063df17319f1161006f578063df17319f14610676578063dff0ef4f14610696578063e3335120146106b6578063f8d27e23146106d6578063f955905d146106eb57610230565b8063beee5eb7146105c0578063c2ed2b05146105e0578063d547741f14610616578063d5df755914610636578063dd62ed3e1461065657610230565b8063a217fddf116100f2578063a217fddf1461052b578063a224cee714610540578063a457c2d714610560578063a48d224e14610580578063a9059cbb146105a057610230565b806370a08231146104a157806391d14854146104c157806395d89b41146104e157806395e52d98146104f65780639a83fb5b1461050b57610230565b80633072cf60116101bc5780634e6ec247116101805780634e6ec2471461040c5780635410af951461042c5780636161eb181461044157806364b48a0b146104615780636b9f10291461048157610230565b80633072cf6014610373578063313ce5671461039557806336568abe146103aa57806337181083146103ca57806339509351146103ec57610230565b80631ced30d7116102035780631ced30d7146102cf57806320947198146102fe57806323b872dd14610313578063248a9ca3146103335780632f2ff15d1461035357610230565b806301ffc9a71461023557806306fdde031461026b578063095ea7b31461028d57806318160ddd146102ad575b600080fd5b34801561024157600080fd5b50610255610250366004612be1565b61070b565b6040516102629190613182565b60405180910390f35b34801561027757600080fd5b50610280610738565b60405161026291906131a4565b34801561029957600080fd5b506102556102a8366004612ae2565b6107ca565b3480156102b957600080fd5b506102c26107ee565b604051610262919061318d565b3480156102db57600080fd5b506102ef6102ea366004612ba7565b6107f4565b6040516102629392919061388e565b61031161030c366004612bbf565b61089f565b005b34801561031f57600080fd5b5061025561032e366004612aa7565b610991565b34801561033f57600080fd5b506102c261034e366004612ba7565b6109bf565b34801561035f57600080fd5b5061031161036e366004612bbf565b6109d4565b34801561037f57600080fd5b506103886109f5565b6040516102629190613196565b3480156103a157600080fd5b506103886109fe565b3480156103b657600080fd5b506103116103c5366004612bbf565b610a03565b3480156103d657600080fd5b506103df610a45565b60405161026291906137c3565b3480156103f857600080fd5b50610255610407366004612ae2565b610bc8565b34801561041857600080fd5b50610311610427366004612ae2565b610bf4565b34801561043857600080fd5b506102c2610c9e565b34801561044d57600080fd5b5061031161045c366004612ae2565b610ca4565b34801561046d57600080fd5b506103df61047c366004612ba7565b610d7b565b34801561048d57600080fd5b5061031161049c366004612c44565b610ef3565b3480156104ad57600080fd5b506102c26104bc366004612a5b565b6111e4565b3480156104cd57600080fd5b506102556104dc366004612bbf565b6111ff565b3480156104ed57600080fd5b5061028061122a565b34801561050257600080fd5b506102c2611239565b34801561051757600080fd5b506103df610526366004612d63565b61123f565b34801561053757600080fd5b506102c26115a0565b34801561054c57600080fd5b5061031161055b366004612b0b565b6115a5565b34801561056c57600080fd5b5061025561057b366004612ae2565b6116d9565b34801561058c57600080fd5b506102ef61059b366004612ba7565b611721565b3480156105ac57600080fd5b506102556105bb366004612ae2565b611757565b3480156105cc57600080fd5b506102556105db366004612c09565b61176f565b3480156105ec57600080fd5b506106006105fb366004612ba7565b6117db565b6040516102629a999897969594939291906130df565b34801561062257600080fd5b50610311610631366004612bbf565b611add565b34801561064257600080fd5b50610255610651366004612ba7565b611af9565b34801561066257600080fd5b506102c2610671366004612a75565b611bd8565b34801561068257600080fd5b50610255610691366004612ba7565b611c03565b3480156106a257600080fd5b506106006106b1366004612ba7565b611e64565b3480156106c257600080fd5b506102556106d1366004612ba7565b611e90565b3480156106e257600080fd5b50610255611efa565b3480156106f757600080fd5b50610255610706366004612dd6565b611f08565b60006001600160e01b03198216637965db0b60e01b1480610730575061073082611f6a565b90505b919050565b6060609a8054610747906139a2565b80601f0160208091040260200160405190810160405280929190818152602001828054610773906139a2565b80156107c05780601f10610795576101008083540402835291602001916107c0565b820191906000526020600020905b8154815290600101906020018083116107a357829003601f168201915b5050505050905090565b6000806107d5611f83565b90506107e2818585611f87565b60019150505b92915050565b60995490565b60ff6020526000908152604090208054600382018054919291610816906139a2565b80601f0160208091040260200160405190810160405280929190818152602001828054610842906139a2565b801561088f5780601f106108645761010080835404028352916020019161088f565b820191906000526020600020905b81548152906001019060200180831161087257829003601f168201915b5050505050908060040154905083565b6108aa6000336111ff565b6108cf5760405162461bcd60e51b81526004016108c69061360f565b60405180910390fd5b6108d761203b565b600034116108f75760405162461bcd60e51b81526004016108c69061351b565b604051634e6ec24760e01b81523090634e6ec2479061091c90849086906004016130c6565b600060405180830381600087803b15801561093657600080fd5b505af115801561094a573d6000803e3d6000fd5b50506040516001600160a01b03841692503480156108fc029250906000818181858888f19350505050158015610984573d6000803e3d6000fd5b5061098d612065565b5050565b60008061099c611f83565b90506109a985828561206c565b6109b48585856120b6565b506001949350505050565b60009081526065602052604090206001015490565b6109dd826109bf565b6109e6816121b7565b6109f083836121cb565b505050565b60005460ff1681565b601290565b610a0b611f83565b6001600160a01b0316816001600160a01b031614610a3b5760405162461bcd60e51b81526004016108c69061373d565b61098d8282612252565b610a4d61280f565b60ff600060fb5481526020019081526020016000206040518060a00160405290816000820154815260200160018201805480602002602001604051908101604052809291908181526020018280548015610ac657602002820191906000526020600020905b815481526020019060010190808311610ab2575b5050505050815260200160028201805480602002602001604051908101604052809291908181526020018280548015610b1e57602002820191906000526020600020905b815481526020019060010190808311610b0a575b50505050508152602001600382018054610b37906139a2565b80601f0160208091040260200160405190810160405280929190818152602001828054610b63906139a2565b8015610bb05780601f10610b8557610100808354040283529160200191610bb0565b820191906000526020600020905b815481529060010190602001808311610b9357829003601f168201915b50505050508152602001600482015481525050905090565b600080610bd3611f83565b90506107e2818585610be58589611bd8565b610bef9190613911565b611f87565b6001600160a01b038216610c1a5760405162461bcd60e51b81526004016108c69061378c565b610c26600083836109f0565b8060996000828254610c389190613911565b90915550506001600160a01b038216600081815260976020526040808220805485019055517fddf252ad1be2c89b69c2b068fc378daa952ba7f163c4a11628f55a4df523b3ef90610c8a90859061318d565b60405180910390a361098d600083836109f0565b60fb5481565b6001600160a01b038216610cca5760405162461bcd60e51b81526004016108c690613552565b610cd6826000836109f0565b6001600160a01b03821660009081526097602052604090205481811015610d0f5760405162461bcd60e51b81526004016108c690613310565b6001600160a01b0383166000818152609760205260408082208585039055609980548690039055519091907fddf252ad1be2c89b69c2b068fc378daa952ba7f163c4a11628f55a4df523b3ef90610d6790869061318d565b60405180910390a36109f0836000846109f0565b610d8361280f565b600082815260ff6020908152604091829020825160a0810184528154815260018201805485518186028101860190965280865291949293858101939290830182828015610def57602002820191906000526020600020905b815481526020019060010190808311610ddb575b5050505050815260200160028201805480602002602001604051908101604052809291908181526020018280548015610e4757602002820191906000526020600020905b815481526020019060010190808311610e33575b50505050508152602001600382018054610e60906139a2565b80601f0160208091040260200160405190810160405280929190818152602001828054610e8c906139a2565b8015610ed95780601f10610eae57610100808354040283529160200191610ed9565b820191906000526020600020905b815481529060010190602001808311610ebc57829003601f168201915b505050505081526020016004820154815250509050919050565b610efc8661176f565b15610f195760405162461bcd60e51b81526004016108c690613496565b6040516370a0823160e01b815260009030906370a0823190610f3f9033906004016130b2565b60206040518083038186803b158015610f5757600080fd5b505afa158015610f6b573d6000803e3d6000fd5b505050506040513d601f19601f82011682018060405250810190610f8f9190612dbe565b11610fac5760405162461bcd60e51b81526004016108c690613216565b604051806101400160405280610fc0611f83565b6001600160a01b031681526020018b81526020018a815260200189815260200188815260200187815260200186815260200185815260200184815260200182151581525060fd600060fc54815260200190815260200160002060008201518160000160006101000a8154816001600160a01b0302191690836001600160a01b03160217905550602082015181600101908051906020019061106292919061283e565b506040820151805161107e91600284019160209091019061283e565b50606082015160038201556080820151600482015560a082015180516110ae91600584019160209091019061283e565b5060c0820151600682015560e082015180516110d491600784019160209091019061283e565b5061010082015180516110f191600884019160209091019061283e565b5061012091909101516009909101805460ff191691151591909117905560fc805460019190600090611124908490613911565b9091555050604051630c2c3d6360e31b81523090636161eb1890611156903390670de0b6b3a7640000906004016130c6565b600060405180830381600087803b15801561117057600080fd5b505af1158015611184573d6000803e3d6000fd5b50505050611190611f83565b6001600160a01b03167f2d0f6b4ccdebe43212fa3227dbadcb7129f23c41bd3fe08615644b3c80394b708b8b8989876040516111d09594939291906131b7565b60405180910390a250505050505050505050565b6001600160a01b031660009081526097602052604090205490565b60009182526065602090815260408084206001600160a01b0393909316845291905290205460ff1690565b6060609b8054610747906139a2565b60fc5481565b61124761280f565b8385116112665760405162461bcd60e51b81526004016108c69061324d565b826112718587613948565b101561128f5760405162461bcd60e51b81526004016108c690613394565b60fb805490600061129f836139dd565b909155505060fb54600081815260ff60205260409020556112c18585886122d7565b6112cc8584886123f7565b60fb54600090815260ff6020908152604090912087516112f49260039092019189019061283e565b5060fb8054600090815260ff60205260408082206004018590559154815290812061010080546001818101835591909352815460059093027f45e010b9ae401e2eb71529478da8bd513a9bdc2d095a111e324f5b95c09ed87b81019384559082018054929392611387927f45e010b9ae401e2eb71529478da8bd513a9bdc2d095a111e324f5b95c09ed87c0191906128c2565b506002828101805461139c92840191906128c2565b5060038201816003019080546113b1906139a2565b6113bc929190612902565b5060049182015491015560fb54600090815260ff60205260409081902090517f08261540bf877ae50393677a2ff0f30bf4866f83f5908adc79f2ede83c6fcc679161141791889160018101916002909101908b90889061383c565b60405180910390a160ff600060fb5481526020019081526020016000206040518060a0016040529081600082015481526020016001820180548060200260200160405190810160405280929190818152602001828054801561149857602002820191906000526020600020905b815481526020019060010190808311611484575b50505050508152602001600282018054806020026020016040519081016040528092919081815260200182805480156114f057602002820191906000526020600020905b8154815260200190600101908083116114dc575b50505050508152602001600382018054611509906139a2565b80601f0160208091040260200160405190810160405280929190818152602001828054611535906139a2565b80156115825780601f1061155757610100808354040283529160200191611582565b820191906000526020600020905b81548152906001019060200180831161156557829003601f168201915b50505050508152602001600482015481525050905095945050505050565b600081565b600054610100900460ff16158080156115c55750600054600160ff909116105b806115e657506115d430612587565b1580156115e6575060005460ff166001145b6116025760405162461bcd60e51b81526004016108c6906134cd565b6000805460ff191660011790558015611625576000805461ff0019166101001790555b6116306000336125b8565b60005b8251811015611682576116706000801b84838151811061166357634e487b7160e01b600052603260045260246000fd5b60200260200101516125b8565b8061167a816139dd565b915050611633565b5061168b6125c2565b801561098d576000805461ff00191690556040517f7f26b83ff96e1f2b6a682f133852f6798a09c465da95921460cefb3847402498906116cd90600190613196565b60405180910390a15050565b6000806116e4611f83565b905060006116f28286611bd8565b9050838110156117145760405162461bcd60e51b81526004016108c6906136f8565b6109b48286868403611f87565b610100818154811061173257600080fd5b60009182526020909120600590910201805460038201805491935090610816906139a2565b600080611762611f83565b90506107e28185856120b6565b6000805b60fc548110156117d257828051906020012060fd60008381526020019081526020016000206005016040516117a89190612f0a565b604051809103902014156117c0576001915050610733565b806117ca816139dd565b915050611773565b50600092915050565b60fd60205260009081526040902080546001820180546001600160a01b039092169291611807906139a2565b80601f0160208091040260200160405190810160405280929190818152602001828054611833906139a2565b80156118805780601f1061185557610100808354040283529160200191611880565b820191906000526020600020905b81548152906001019060200180831161186357829003601f168201915b505050505090806002018054611895906139a2565b80601f01602080910402602001604051908101604052809291908181526020018280546118c1906139a2565b801561190e5780601f106118e35761010080835404028352916020019161190e565b820191906000526020600020905b8154815290600101906020018083116118f157829003601f168201915b50505050509080600301549080600401549080600501805461192f906139a2565b80601f016020809104026020016040519081016040528092919081815260200182805461195b906139a2565b80156119a85780601f1061197d576101008083540402835291602001916119a8565b820191906000526020600020905b81548152906001019060200180831161198b57829003601f168201915b5050505050908060060154908060070180546119c3906139a2565b80601f01602080910402602001604051908101604052809291908181526020018280546119ef906139a2565b8015611a3c5780601f10611a1157610100808354040283529160200191611a3c565b820191906000526020600020905b815481529060010190602001808311611a1f57829003601f168201915b505050505090806008018054611a51906139a2565b80601f0160208091040260200160405190810160405280929190818152602001828054611a7d906139a2565b8015611aca5780601f10611a9f57610100808354040283529160200191611aca565b820191906000526020600020905b815481529060010190602001808311611aad57829003601f168201915b5050506009909301549192505060ff168a565b611ae6826109bf565b611aef816121b7565b6109f08383612252565b6000611b0581336111ff565b611b215760405162461bcd60e51b81526004016108c69061360f565b600082815260fd60205260409020546001600160a01b031615611bd057600082815260fd6020526040812080546001600160a01b031916815590611b68600183018261297c565b611b7660028301600061297c565b60038201600090556004820160009055600582016000611b96919061297c565b6006820160009055600782016000611bae919061297c565b611bbc60088301600061297c565b50600901805460ff19169055506001610733565b506000919050565b6001600160a01b03918216600090815260986020908152604080832093909416825291909152205490565b600081815260fd60205260408120546001600160a01b03163314611c395760405162461bcd60e51b81526004016108c690613467565b600082815260fd60205260409020546001600160a01b031615611bd057600082815260fd602052604090206009015460ff16611c8c57600082815260fd60205260409020600901805460ff191660011790555b600082815260fd6020908152604080832060fe909252909120815481546001600160a01b0319166001600160a01b039091161781556001808301805491830191611cd5906139a2565b611ce0929190612902565b506002820181600201908054611cf5906139a2565b611d00929190612902565b5060038201548160030155600482015481600401556005820181600501908054611d29906139a2565b611d34929190612902565b50600682015481600601556007820181600701908054611d53906139a2565b611d5e929190612902565b506008820181600801908054611d73906139a2565b611d7e929190612902565b506009918201549101805460ff191660ff9092161515919091179055600082815260fd6020526040812080546001600160a01b031916815590611dc4600183018261297c565b611dd260028301600061297c565b60038201600090556004820160009055600582016000611df2919061297c565b6006820160009055600782016000611e0a919061297c565b611e1860088301600061297c565b50600901805460ff191690556040517fb24ed87c676418c268d51d484f3aa6c8da9b3fc08411fb509e05c342cefbcd5990611e5490849061318d565b60405180910390a1506001610733565b60fe60205260009081526040902080546001820180546001600160a01b039092169291611807906139a2565b6000611e9a611f83565b600083815260fd60205260409020546001600160a01b03908116911614611ed35760405162461bcd60e51b81526004016108c690613593565b50600090815260fd60205260409020600901805460ff81161560ff19909116179055600190565b600054610100900460ff1681565b6000805b8251811015611f6057828181518110611f3557634e487b7160e01b600052603260045260246000fd5b6020026020010151841415611f4e5760019150506107e8565b80611f58816139dd565b915050611f0c565b5060009392505050565b6001600160e01b031981166301ffc9a760e01b14919050565b3390565b6001600160a01b038316611fad5760405162461bcd60e51b81526004016108c690613632565b6001600160a01b038216611fd35760405162461bcd60e51b81526004016108c690613352565b6001600160a01b0380841660008181526098602090815260408083209487168084529490915290819020849055517f8c5be1e5ebec7d5bd14f71427d1e84f3dd0314c0f7b2291e5b200ac8c7c3b9259061202e90859061318d565b60405180910390a3505050565b600260c954141561205e5760405162461bcd60e51b81526004016108c6906136c1565b600260c955565b600160c955565b60006120788484611bd8565b905060001981146120b057818110156120a35760405162461bcd60e51b81526004016108c6906133ea565b6120b08484848403611f87565b50505050565b6001600160a01b0383166120dc5760405162461bcd60e51b81526004016108c6906135ca565b6001600160a01b0382166121025760405162461bcd60e51b81526004016108c6906132cd565b61210d8383836109f0565b6001600160a01b038316600090815260976020526040902054818110156121465760405162461bcd60e51b81526004016108c690613421565b6001600160a01b0380851660008181526097602052604080822086860390559286168082529083902080548601905591517fddf252ad1be2c89b69c2b068fc378daa952ba7f163c4a11628f55a4df523b3ef906121a490869061318d565b60405180910390a36120b08484846109f0565b6121c8816121c3611f83565b6125eb565b50565b6121d582826111ff565b61098d5760008281526065602090815260408083206001600160a01b03851684529091529020805460ff1916600117905561220e611f83565b6001600160a01b0316816001600160a01b0316837f2f8788117e7eff1d82e926ec794901d17c78024a50270940304540a733656f0d60405160405180910390a45050565b61225c82826111ff565b1561098d5760008281526065602090815260408083206001600160a01b03851684529091529020805460ff19169055612293611f83565b6001600160a01b0316816001600160a01b0316837ff6391f5c32d9c69d2a47ea670b442974b53935d1edc7fd64eb21e047a839171b60405160405180910390a45050565b6000835b838210156123f05760008542338686866040516020016122ff95949392919061301a565b6040516020818303038152906040528051906020012060001c61232291906139f8565b61232d906001613911565b905061239f8160ff600060fb54815260200190815260200160002060010180548060200260200160405190810160405280929190818152602001828054801561239557602002820191906000526020600020905b815481526020019060010190808311612381575b5050505050611f08565b6123dc5760fb54600090815260ff6020908152604082206001908101805491820181558352912001819055826123d4816139dd565b9350506123ea565b816123e6816139dd565b9250505b506122db565b5050505050565b6000835b838210156123f057600085423385858860405160200161241f959493929190613065565b6040516020818303038152906040528051906020012060001c61244291906139f8565b61244d906001613911565b90506124bd8160ff600060fb5481526020019081526020016000206001018054806020026020016040519081016040528092919081815260200182805480156123955760200282019190600052602060002090815481526020019060010190808311612381575050505050611f08565b15801561253557506125338160ff600060fb5481526020019081526020016000206002018054806020026020016040519081016040528092919081815260200182805480156123955760200282019190600052602060002090815481526020019060010190808311612381575050505050611f08565b155b156125735760fb54600090815260ff60209081526040822060020180546001810182559083529120018190558261256b816139dd565b935050612581565b8161257d816139dd565b9250505b506123fb565b600080826001600160a01b0316803b806020016040519081016040528181526000908060200190933c511192915050565b61098d82826121cb565b600054610100900460ff166125e95760405162461bcd60e51b81526004016108c690613676565b565b6125f582826111ff565b61098d5761260281612644565b61260d836020612656565b60405160200161261e929190612fa5565b60408051601f198184030181529082905262461bcd60e51b82526108c6916004016131a4565b60606107306001600160a01b03831660145b60606000612665836002613929565b612670906002613911565b67ffffffffffffffff81111561269657634e487b7160e01b600052604160045260246000fd5b6040519080825280601f01601f1916602001820160405280156126c0576020820181803683370190505b509050600360fc1b816000815181106126e957634e487b7160e01b600052603260045260246000fd5b60200101906001600160f81b031916908160001a905350600f60fb1b8160018151811061272657634e487b7160e01b600052603260045260246000fd5b60200101906001600160f81b031916908160001a905350600061274a846002613929565b612755906001613911565b90505b60018111156127e9576f181899199a1a9b1b9c1cb0b131b232b360811b85600f166010811061279757634e487b7160e01b600052603260045260246000fd5b1a60f81b8282815181106127bb57634e487b7160e01b600052603260045260246000fd5b60200101906001600160f81b031916908160001a90535060049490941c936127e28161398b565b9050612758565b5083156128085760405162461bcd60e51b81526004016108c690613298565b9392505050565b6040518060a0016040528060008152602001606081526020016060815260200160608152602001600081525090565b82805461284a906139a2565b90600052602060002090601f01602090048101928261286c57600085556128b2565b82601f1061288557805160ff19168380011785556128b2565b828001600101855582156128b2579182015b828111156128b2578251825591602001919060010190612897565b506128be9291506129b4565b5090565b8280548282559060005260206000209081019282156128b25760005260206000209182015b828111156128b25782548255916001019190600101906128e7565b82805461290e906139a2565b90600052602060002090601f01602090048101928261293057600085556128b2565b82601f1061294157805485556128b2565b828001600101855582156128b257600052602060002091601f01602090048201828111156128b25782548255916001019190600101906128e7565b508054612988906139a2565b6000825580601f1061299a57506121c8565b601f0160209004906000526020600020908101906121c891905b5b808211156128be57600081556001016129b5565b80356001600160a01b038116811461073357600080fd5b8035801515811461073357600080fd5b600082601f830112612a00578081fd5b813567ffffffffffffffff811115612a1a57612a1a613a2e565b612a2d601f8201601f19166020016138b7565b818152846020838601011115612a41578283fd5b816020850160208301379081016020019190915292915050565b600060208284031215612a6c578081fd5b612808826129c9565b60008060408385031215612a87578081fd5b612a90836129c9565b9150612a9e602084016129c9565b90509250929050565b600080600060608486031215612abb578081fd5b612ac4846129c9565b9250612ad2602085016129c9565b9150604084013590509250925092565b60008060408385031215612af4578182fd5b612afd836129c9565b946020939093013593505050565b60006020808385031215612b1d578182fd5b823567ffffffffffffffff811115612b33578283fd5b8301601f81018513612b43578283fd5b8035612b56612b51826138e1565b6138b7565b8181528381019083850185840285018601891015612b72578687fd5b8694505b83851015612b9b57612b87816129c9565b835260019490940193918501918501612b76565b50979650505050505050565b600060208284031215612bb8578081fd5b5035919050565b60008060408385031215612bd1578182fd5b82359150612a9e602084016129c9565b600060208284031215612bf2578081fd5b81356001600160e01b031981168114612808578182fd5b600060208284031215612c1a578081fd5b813567ffffffffffffffff811115612c30578182fd5b612c3c848285016129f0565b949350505050565b6000806000806000806000806000806101408b8d031215612c63578586fd5b8a3567ffffffffffffffff80821115612c7a578788fd5b612c868e838f016129f0565b9b5060208d0135915080821115612c9b578788fd5b612ca78e838f016129f0565b9a5060408d0135995060608d0135985060808d0135915080821115612cca578788fd5b612cd68e838f016129f0565b975060a08d0135965060c08d0135915080821115612cf2578586fd5b612cfe8e838f016129f0565b955060e08d0135915080821115612d13578485fd5b612d1f8e838f016129f0565b94506101008d0135915080821115612d35578384fd5b50612d428d828e016129f0565b925050612d526101208c016129e0565b90509295989b9194979a5092959850565b600080600080600060a08688031215612d7a578283fd5b853567ffffffffffffffff811115612d90578384fd5b612d9c888289016129f0565b9860208801359850604088013597606081013597506080013595509350505050565b600060208284031215612dcf578081fd5b5051919050565b60008060408385031215612de8578182fd5b8235915060208084013567ffffffffffffffff811115612e06578283fd5b8401601f81018613612e16578283fd5b8035612e24612b51826138e1565b81815283810190838501858402850186018a1015612e40578687fd5b8694505b83851015612e62578035835260019490940193918501918501612e44565b5080955050505050509250929050565b6000815180845260208085019450808401835b83811015612ea157815187529582019590820190600101612e85565b509495945050505050565b6000815480845260208085019450838352808320835b83811015612ea157815487529582019560019182019101612ec2565b60008151808452612ef681602086016020860161395f565b601f01601f19169290920160200192915050565b8154600090819060028104600180831680612f2657607f831692505b6020808410821415612f4657634e487b7160e01b87526022600452602487fd5b818015612f5a5760018114612f6b57612f97565b60ff19861689528489019650612f97565b612f748a613905565b885b86811015612f8f5781548b820152908501908301612f76565b505084890196505b509498975050505050505050565b60007f416363657373436f6e74726f6c3a206163636f756e742000000000000000000082528351612fdd81601785016020880161395f565b7001034b99036b4b9b9b4b733903937b6329607d1b601791840191820152835161300e81602884016020880161395f565b01602801949350505050565b60008682526bffffffffffffffffffffffff198660601b166020830152845161304a81603485016020890161395f565b90910160348101939093525060548201526074019392505050565b60008682526bffffffffffffffffffffffff198660601b16602083015284603483015283605483015282516130a181607485016020870161395f565b919091016074019695505050505050565b6001600160a01b0391909116815260200190565b6001600160a01b03929092168252602082015260400190565b6001600160a01b038b168152610140602082018190526000906131048382018d612ede565b90508281036040840152613118818c612ede565b905089606084015288608084015282810360a08401526131388189612ede565b90508660c084015282810360e08401526131528187612ede565b90508281036101008401526131678186612ede565b9150508215156101208301529b9a5050505050505050505050565b901515815260200190565b90815260200190565b60ff91909116815260200190565b6000602082526128086020830184612ede565b600060a082526131ca60a0830188612ede565b82810360208401526131dc8188612ede565b905082810360408401526131f08187612ede565b9050846060840152828103608084015261320a8185612ede565b98975050505050505050565b6020808252601b908201527f596f752063616e6e6f74207375626d697420646f63756d656e74730000000000604082015260600190565b6020808252602b908201527f546f74616c20706c61796572732073686f756c6420626520677265617465722060408201526a7468612077696e6e65727360a81b606082015260800190565b6020808252818101527f537472696e67733a20686578206c656e67746820696e73756666696369656e74604082015260600190565b60208082526023908201527f45524332303a207472616e7366657220746f20746865207a65726f206164647260408201526265737360e81b606082015260800190565b60208082526022908201527f45524332303a206275726e20616d6f756e7420657863656564732062616c616e604082015261636560f01b606082015260800190565b60208082526022908201527f45524332303a20617070726f766520746f20746865207a65726f206164647265604082015261737360f01b606082015260800190565b60208082526036908201527f546f74616c20706c61796572732073686f756c642062652067726561746572206040820152757468612077696e6e6572732b616c7465726e6174657360501b606082015260800190565b6020808252601d908201527f45524332303a20696e73756666696369656e7420616c6c6f77616e6365000000604082015260600190565b60208082526026908201527f45524332303a207472616e7366657220616d6f756e7420657863656564732062604082015265616c616e636560d01b606082015260800190565b6020808252601590820152742cb7ba9030b932903737ba103a34329037bbb732b960591b604082015260600190565b60208082526017908201527f426c6f636b546f57696e3a20484153485f455849535453000000000000000000604082015260600190565b6020808252602e908201527f496e697469616c697a61626c653a20636f6e747261637420697320616c72656160408201526d191e481a5b9a5d1a585b1a5e995960921b606082015260800190565b60208082526018908201527f546869732066756e6374696f6e2069732070617961626c650000000000000000604082015260600190565b60208082526021908201527f45524332303a206275726e2066726f6d20746865207a65726f206164647265736040820152607360f81b606082015260800190565b6020808252601e908201527f426c6f636b546f57696e3a204e4f545f4f574e45525f444f43554d454e540000604082015260600190565b60208082526025908201527f45524332303a207472616e736665722066726f6d20746865207a65726f206164604082015264647265737360d81b606082015260800190565b6020808252600990820152682737ba1037bbb732b960b91b604082015260600190565b60208082526024908201527f45524332303a20617070726f76652066726f6d20746865207a65726f206164646040820152637265737360e01b606082015260800190565b6020808252602b908201527f496e697469616c697a61626c653a20636f6e7472616374206973206e6f74206960408201526a6e697469616c697a696e6760a81b606082015260800190565b6020808252601f908201527f5265656e7472616e637947756172643a207265656e7472616e742063616c6c00604082015260600190565b60208082526025908201527f45524332303a2064656372656173656420616c6c6f77616e63652062656c6f77604082015264207a65726f60d81b606082015260800190565b6020808252602f908201527f416363657373436f6e74726f6c3a2063616e206f6e6c792072656e6f756e636560408201526e103937b632b9903337b91039b2b63360891b606082015260800190565b6020808252601f908201527f45524332303a206d696e7420746f20746865207a65726f206164647265737300604082015260600190565b60006020825282516020830152602083015160a060408401526137e960c0840182612e72565b90506040840151601f19808584030160608601526138078383612e72565b92506060860151915080858403016080860152506138258282612ede565b915050608084015160a08401528091505092915050565b600086825260a0602083015261385560a0830187612eac565b82810360408401526138678187612eac565b9050828103606084015261387b8186612ede565b9150508260808301529695505050505050565b6000848252606060208301526138a76060830185612ede565b9050826040830152949350505050565b60405181810167ffffffffffffffff811182821017156138d9576138d9613a2e565b604052919050565b600067ffffffffffffffff8211156138fb576138fb613a2e565b5060209081020190565b60009081526020902090565b6000821982111561392457613924613a18565b500190565b600081600019048311821515161561394357613943613a18565b500290565b60008282101561395a5761395a613a18565b500390565b60005b8381101561397a578181015183820152602001613962565b838111156120b05750506000910152565b60008161399a5761399a613a18565b506000190190565b6002810460018216806139b657607f821691505b602082108114156139d757634e487b7160e01b600052602260045260246000fd5b50919050565b60006000198214156139f1576139f1613a18565b5060010190565b600082613a1357634e487b7160e01b81526012600452602481fd5b500690565b634e487b7160e01b600052601160045260246000fd5b634e487b7160e01b600052604160045260246000fdfea2646970667358221220cc473da56531f673f50b38d8e78f2554fe887dfbdcd561ae349f9d79615c878c64736f6c63430008000033",
  "devdoc": {
    "author": "Crisol Cova",
    "events": {
      "DocumentSubmitted(address,string,string,string,uint256,string)": {
        "details": "Emitted when `approval' submits a document."
      }
    },
    "kind": "dev",
    "methods": {
      "_burn(address,uint256)": {
        "details": "Destroys `amount` tokens from `account`, reducing the total supply. Emits a {Transfer} event with `to` set to the zero address. Requirements: - `account` cannot be the zero address. - `account` must have at least `amount` tokens."
      },
      "_mint(address,uint256)": {
        "details": "Creates `amount` tokens and assigns them to `account`, increasing the total supply. Emits a {Transfer} event with `from` set to the zero address. Requirements: - `account` cannot be the zero address."
      },
      "allowance(address,address)": {
        "details": "See {IERC20-allowance}."
      },
      "approve(address,uint256)": {
        "details": "See {IERC20-approve}. NOTE: If `amount` is the maximum `uint256`, the allowance is not updated on `transferFrom`. This is semantically equivalent to an infinite approval. Requirements: - `spender` cannot be the zero address."
      },
      "balanceOf(address)": {
        "details": "See {IERC20-balanceOf}."
      },
      "decimals()": {
        "details": "Returns the number of decimals used to get its user representation. For example, if `decimals` equals `2`, a balance of `505` tokens should be displayed to a user as `5.05` (`505 / 10 ** 2`). Tokens usually opt for a value of 18, imitating the relationship between Ether and Wei. This is the value {ERC20} uses, unless this function is overridden; NOTE: This information is only used for _display_ purposes: it in no way affects any of the arithmetic of the contract, including {IERC20-balanceOf} and {IERC20-transfer}."
      },
      "decreaseAllowance(address,uint256)": {
        "details": "Atomically decreases the allowance granted to `spender` by the caller. This is an alternative to {approve} that can be used as a mitigation for problems described in {IERC20-approve}. Emits an {Approval} event indicating the updated allowance. Requirements: - `spender` cannot be the zero address. - `spender` must have allowance for the caller of at least `subtractedValue`."
      },
      "getRoleAdmin(bytes32)": {
        "details": "Returns the admin role that controls `role`. See {grantRole} and {revokeRole}. To change a role's admin, use {_setRoleAdmin}."
      },
      "grantRole(bytes32,address)": {
        "details": "Grants `role` to `account`. If `account` had not been already granted `role`, emits a {RoleGranted} event. Requirements: - the caller must have ``role``'s admin role. May emit a {RoleGranted} event."
      },
      "hasRole(bytes32,address)": {
        "details": "Returns `true` if `account` has been granted `role`."
      },
      "increaseAllowance(address,uint256)": {
        "details": "Atomically increases the allowance granted to `spender` by the caller. This is an alternative to {approve} that can be used as a mitigation for problems described in {IERC20-approve}. Emits an {Approval} event indicating the updated allowance. Requirements: - `spender` cannot be the zero address."
      },
      "name()": {
        "details": "Returns the name of the token."
      },
      "renounceRole(bytes32,address)": {
        "details": "Revokes `role` from the calling account. Roles are often managed via {grantRole} and {revokeRole}: this function's purpose is to provide a mechanism for accounts to lose their privileges if they are compromised (such as when a trusted device is misplaced). If the calling account had been revoked `role`, emits a {RoleRevoked} event. Requirements: - the caller must be `account`. May emit a {RoleRevoked} event."
      },
      "revokeRole(bytes32,address)": {
        "details": "Revokes `role` from `account`. If `account` had been granted `role`, emits a {RoleRevoked} event. Requirements: - the caller must have ``role``'s admin role. May emit a {RoleRevoked} event."
      },
      "submitDocument(string,string,uint256,uint256,string,uint256,string,string,string,bool)": {
        "params": {
          "explorerLink": "Link of the document hash in the explorer",
          "ext": "Extension of the document (ex: .pdf .doc .txt) Emits a {DocumentSubmitted} event.",
          "hash": "Hash generated by the IPFS",
          "ipfsLink": "Link of the document hash in the IPFS",
          "name": "Name of the company/user.",
          "promo": "Description of the promo.",
          "uploadedAt": "Timestamp for the generated document",
          "validityEnd": "Timestampt for the validity end, in unix",
          "validityStart": "Timestamp for the validity start, in unix"
        }
      },
      "supportsInterface(bytes4)": {
        "details": "See {IERC165-supportsInterface}."
      },
      "symbol()": {
        "details": "Returns the symbol of the token, usually a shorter version of the name."
      },
      "totalSupply()": {
        "details": "See {IERC20-totalSupply}."
      },
      "transfer(address,uint256)": {
        "details": "See {IERC20-transfer}. Requirements: - `to` cannot be the zero address. - the caller must have a balance of at least `amount`."
      },
      "transferFrom(address,address,uint256)": {
        "details": "See {IERC20-transferFrom}. Emits an {Approval} event indicating the updated allowance. This is not required by the EIP. See the note at the beginning of {ERC20}. NOTE: Does not update the allowance if the current allowance is the maximum `uint256`. Requirements: - `from` and `to` cannot be the zero address. - `from` must have a balance of at least `amount`. - the caller must have allowance for ``from``'s tokens of at least `amount`."
      }
    },
    "stateVariables": {
      "documentsCount": {
        "return": "The counter of the documents."
      }
    },
    "title": "BlockToWin Platform",
    "version": 1
  },
  "userdoc": {
    "kind": "user",
    "methods": {
      "cancelDocument(uint256)": {
        "notice": "cancel a document only the approval"
      },
      "changeDocumentVisibility(uint256)": {
        "notice": "Change the visibility of a document if you are the owner of that document, if you aren't the owner, it's just returning false."
      },
      "currentDataLotteryId()": {
        "notice": "the current id to reference the lottery"
      },
      "dataLotteryRecord(uint256)": {
        "notice": "mapping ids of lottery to struct to storage all the lotteries"
      },
      "documentsCount()": {
        "notice": "Retrieves the amount of documents submitted."
      },
      "registerAnUser(uint256,address)": {
        "notice": "this function register an user to allow them submit documents"
      },
      "removeDocument(uint256)": {
        "notice": "Removes a document at `index` in the mapping of documents"
      },
      "shakeTheNumbers(string,uint256,uint256,uint256,uint256)": {
        "notice": "turn on the lottery and storage the resultsreturns the winners, alternate and hashExcel provide"
      },
      "submitDocument(string,string,uint256,uint256,string,uint256,string,string,string,bool)": {
        "notice": "Allows to an approval submits a document."
      },
      "verifyDocument(string)": {
        "notice": "Returns true if `hash` already exist in a document"
      }
    },
    "notice": "BlockToWin allows you to submit documents that can be verified in IPFS",
    "version": 1
  },
  "storageLayout": {
    "storage": [
      {
        "astId": 413,
        "contract": "contracts/BlockToWin.sol:BlockToWin",
        "label": "_initialized",
        "offset": 0,
        "slot": "0",
        "type": "t_uint8"
      },
      {
        "astId": 415,
        "contract": "contracts/BlockToWin.sol:BlockToWin",
        "label": "_initializing",
        "offset": 1,
        "slot": "0",
        "type": "t_bool"
      },
      {
        "astId": 1684,
        "contract": "contracts/BlockToWin.sol:BlockToWin",
        "label": "__gap",
        "offset": 0,
        "slot": "1",
        "type": "t_array(t_uint256)50_storage"
      },
      {
        "astId": 1903,
        "contract": "contracts/BlockToWin.sol:BlockToWin",
        "label": "__gap",
        "offset": 0,
        "slot": "51",
        "type": "t_array(t_uint256)50_storage"
      },
      {
        "astId": 39,
        "contract": "contracts/BlockToWin.sol:BlockToWin",
        "label": "_roles",
        "offset": 0,
        "slot": "101",
        "type": "t_mapping(t_bytes32,t_struct(RoleData)34_storage)"
      },
      {
        "astId": 334,
        "contract": "contracts/BlockToWin.sol:BlockToWin",
        "label": "__gap",
        "offset": 0,
        "slot": "102",
        "type": "t_array(t_uint256)49_storage"
      },
      {
        "astId": 663,
        "contract": "contracts/BlockToWin.sol:BlockToWin",
        "label": "_balances",
        "offset": 0,
        "slot": "151",
        "type": "t_mapping(t_address,t_uint256)"
      },
      {
        "astId": 669,
        "contract": "contracts/BlockToWin.sol:BlockToWin",
        "label": "_allowances",
        "offset": 0,
        "slot": "152",
        "type": "t_mapping(t_address,t_mapping(t_address,t_uint256))"
      },
      {
        "astId": 671,
        "contract": "contracts/BlockToWin.sol:BlockToWin",
        "label": "_totalSupply",
        "offset": 0,
        "slot": "153",
        "type": "t_uint256"
      },
      {
        "astId": 673,
        "contract": "contracts/BlockToWin.sol:BlockToWin",
        "label": "_name",
        "offset": 0,
        "slot": "154",
        "type": "t_string_storage"
      },
      {
        "astId": 675,
        "contract": "contracts/BlockToWin.sol:BlockToWin",
        "label": "_symbol",
        "offset": 0,
        "slot": "155",
        "type": "t_string_storage"
      },
      {
        "astId": 1255,
        "contract": "contracts/BlockToWin.sol:BlockToWin",
        "label": "__gap",
        "offset": 0,
        "slot": "156",
        "type": "t_array(t_uint256)45_storage"
      },
      {
        "astId": 585,
        "contract": "contracts/BlockToWin.sol:BlockToWin",
        "label": "_status",
        "offset": 0,
        "slot": "201",
        "type": "t_uint256"
      },
      {
        "astId": 643,
        "contract": "contracts/BlockToWin.sol:BlockToWin",
        "label": "__gap",
        "offset": 0,
        "slot": "202",
        "type": "t_array(t_uint256)49_storage"
      },
      {
        "astId": 2804,
        "contract": "contracts/BlockToWin.sol:BlockToWin",
        "label": "currentDataLotteryId",
        "offset": 0,
        "slot": "251",
        "type": "t_uint256"
      },
      {
        "astId": 2807,
        "contract": "contracts/BlockToWin.sol:BlockToWin",
        "label": "documentsCount",
        "offset": 0,
        "slot": "252",
        "type": "t_uint256"
      },
      {
        "astId": 2846,
        "contract": "contracts/BlockToWin.sol:BlockToWin",
        "label": "documents",
        "offset": 0,
        "slot": "253",
        "type": "t_mapping(t_uint256,t_struct(Document)2841_storage)"
      },
      {
        "astId": 2851,
        "contract": "contracts/BlockToWin.sol:BlockToWin",
        "label": "canceledDocuments",
        "offset": 0,
        "slot": "254",
        "type": "t_mapping(t_uint256,t_struct(Document)2841_storage)"
      },
      {
        "astId": 2857,
        "contract": "contracts/BlockToWin.sol:BlockToWin",
        "label": "dataLotteryRecord",
        "offset": 0,
        "slot": "255",
        "type": "t_mapping(t_uint256,t_struct(DataLottery)2820_storage)"
      },
      {
        "astId": 2861,
        "contract": "contracts/BlockToWin.sol:BlockToWin",
        "label": "allData",
        "offset": 0,
        "slot": "256",
        "type": "t_array(t_struct(DataLottery)2820_storage)dyn_storage"
      }
    ],
    "types": {
      "t_address": {
        "encoding": "inplace",
        "label": "address",
        "numberOfBytes": "20"
      },
      "t_array(t_struct(DataLottery)2820_storage)dyn_storage": {
        "base": "t_struct(DataLottery)2820_storage",
        "encoding": "dynamic_array",
        "label": "struct BlockToWin.DataLottery[]",
        "numberOfBytes": "32"
      },
      "t_array(t_uint256)45_storage": {
        "base": "t_uint256",
        "encoding": "inplace",
        "label": "uint256[45]",
        "numberOfBytes": "1440"
      },
      "t_array(t_uint256)49_storage": {
        "base": "t_uint256",
        "encoding": "inplace",
        "label": "uint256[49]",
        "numberOfBytes": "1568"
      },
      "t_array(t_uint256)50_storage": {
        "base": "t_uint256",
        "encoding": "inplace",
        "label": "uint256[50]",
        "numberOfBytes": "1600"
      },
      "t_array(t_uint256)dyn_storage": {
        "base": "t_uint256",
        "encoding": "dynamic_array",
        "label": "uint256[]",
        "numberOfBytes": "32"
      },
      "t_bool": {
        "encoding": "inplace",
        "label": "bool",
        "numberOfBytes": "1"
      },
      "t_bytes32": {
        "encoding": "inplace",
        "label": "bytes32",
        "numberOfBytes": "32"
      },
      "t_mapping(t_address,t_bool)": {
        "encoding": "mapping",
        "key": "t_address",
        "label": "mapping(address => bool)",
        "numberOfBytes": "32",
        "value": "t_bool"
      },
      "t_mapping(t_address,t_mapping(t_address,t_uint256))": {
        "encoding": "mapping",
        "key": "t_address",
        "label": "mapping(address => mapping(address => uint256))",
        "numberOfBytes": "32",
        "value": "t_mapping(t_address,t_uint256)"
      },
      "t_mapping(t_address,t_uint256)": {
        "encoding": "mapping",
        "key": "t_address",
        "label": "mapping(address => uint256)",
        "numberOfBytes": "32",
        "value": "t_uint256"
      },
      "t_mapping(t_bytes32,t_struct(RoleData)34_storage)": {
        "encoding": "mapping",
        "key": "t_bytes32",
        "label": "mapping(bytes32 => struct AccessControlUpgradeable.RoleData)",
        "numberOfBytes": "32",
        "value": "t_struct(RoleData)34_storage"
      },
      "t_mapping(t_uint256,t_struct(DataLottery)2820_storage)": {
        "encoding": "mapping",
        "key": "t_uint256",
        "label": "mapping(uint256 => struct BlockToWin.DataLottery)",
        "numberOfBytes": "32",
        "value": "t_struct(DataLottery)2820_storage"
      },
      "t_mapping(t_uint256,t_struct(Document)2841_storage)": {
        "encoding": "mapping",
        "key": "t_uint256",
        "label": "mapping(uint256 => struct BlockToWin.Document)",
        "numberOfBytes": "32",
        "value": "t_struct(Document)2841_storage"
      },
      "t_string_storage": {
        "encoding": "bytes",
        "label": "string",
        "numberOfBytes": "32"
      },
      "t_struct(DataLottery)2820_storage": {
        "encoding": "inplace",
        "label": "struct BlockToWin.DataLottery",
        "members": [
          {
            "astId": 2809,
            "contract": "contracts/BlockToWin.sol:BlockToWin",
            "label": "dataLotteryId",
            "offset": 0,
            "slot": "0",
            "type": "t_uint256"
          },
          {
            "astId": 2812,
            "contract": "contracts/BlockToWin.sol:BlockToWin",
            "label": "winners",
            "offset": 0,
            "slot": "1",
            "type": "t_array(t_uint256)dyn_storage"
          },
          {
            "astId": 2815,
            "contract": "contracts/BlockToWin.sol:BlockToWin",
            "label": "alternates",
            "offset": 0,
            "slot": "2",
            "type": "t_array(t_uint256)dyn_storage"
          },
          {
            "astId": 2817,
            "contract": "contracts/BlockToWin.sol:BlockToWin",
            "label": "ipfsDataBack",
            "offset": 0,
            "slot": "3",
            "type": "t_string_storage"
          },
          {
            "astId": 2819,
            "contract": "contracts/BlockToWin.sol:BlockToWin",
            "label": "idDocument",
            "offset": 0,
            "slot": "4",
            "type": "t_uint256"
          }
        ],
        "numberOfBytes": "160"
      },
      "t_struct(Document)2841_storage": {
        "encoding": "inplace",
        "label": "struct BlockToWin.Document",
        "members": [
          {
            "astId": 2822,
            "contract": "contracts/BlockToWin.sol:BlockToWin",
            "label": "owner",
            "offset": 0,
            "slot": "0",
            "type": "t_address"
          },
          {
            "astId": 2824,
            "contract": "contracts/BlockToWin.sol:BlockToWin",
            "label": "name",
            "offset": 0,
            "slot": "1",
            "type": "t_string_storage"
          },
          {
            "astId": 2826,
            "contract": "contracts/BlockToWin.sol:BlockToWin",
            "label": "promo",
            "offset": 0,
            "slot": "2",
            "type": "t_string_storage"
          },
          {
            "astId": 2828,
            "contract": "contracts/BlockToWin.sol:BlockToWin",
            "label": "validityStart",
            "offset": 0,
            "slot": "3",
            "type": "t_uint256"
          },
          {
            "astId": 2830,
            "contract": "contracts/BlockToWin.sol:BlockToWin",
            "label": "validityEnd",
            "offset": 0,
            "slot": "4",
            "type": "t_uint256"
          },
          {
            "astId": 2832,
            "contract": "contracts/BlockToWin.sol:BlockToWin",
            "label": "hash",
            "offset": 0,
            "slot": "5",
            "type": "t_string_storage"
          },
          {
            "astId": 2834,
            "contract": "contracts/BlockToWin.sol:BlockToWin",
            "label": "uploadedAt",
            "offset": 0,
            "slot": "6",
            "type": "t_uint256"
          },
          {
            "astId": 2836,
            "contract": "contracts/BlockToWin.sol:BlockToWin",
            "label": "explorerLink",
            "offset": 0,
            "slot": "7",
            "type": "t_string_storage"
          },
          {
            "astId": 2838,
            "contract": "contracts/BlockToWin.sol:BlockToWin",
            "label": "ipfsLink",
            "offset": 0,
            "slot": "8",
            "type": "t_string_storage"
          },
          {
            "astId": 2840,
            "contract": "contracts/BlockToWin.sol:BlockToWin",
            "label": "isVisible",
            "offset": 0,
            "slot": "9",
            "type": "t_bool"
          }
        ],
        "numberOfBytes": "320"
      },
      "t_struct(RoleData)34_storage": {
        "encoding": "inplace",
        "label": "struct AccessControlUpgradeable.RoleData",
        "members": [
          {
            "astId": 31,
            "contract": "contracts/BlockToWin.sol:BlockToWin",
            "label": "members",
            "offset": 0,
            "slot": "0",
            "type": "t_mapping(t_address,t_bool)"
          },
          {
            "astId": 33,
            "contract": "contracts/BlockToWin.sol:BlockToWin",
            "label": "adminRole",
            "offset": 0,
            "slot": "1",
            "type": "t_bytes32"
          }
        ],
        "numberOfBytes": "64"
      },
      "t_uint256": {
        "encoding": "inplace",
        "label": "uint256",
        "numberOfBytes": "32"
      },
      "t_uint8": {
        "encoding": "inplace",
        "label": "uint8",
        "numberOfBytes": "1"
      }
    }
  }
}