{
  "address": "0xC9Fe11b1C899EC59dbf97a2B45F81d603dA8Af47",
  "abi": [
    {
      "anonymous": false,
      "inputs": [
        {
          "indexed": true,
          "internalType": "address",
          "name": "superAdmin",
          "type": "address"
        },
        {
          "indexed": true,
          "internalType": "address",
          "name": "newAdmin",
          "type": "address"
        }
      ],
      "name": "AdminAdded",
      "type": "event"
    },
    {
      "anonymous": false,
      "inputs": [
        {
          "indexed": true,
          "internalType": "address",
          "name": "superAdmin",
          "type": "address"
        },
        {
          "indexed": true,
          "internalType": "address",
          "name": "revokedAdmin",
          "type": "address"
        }
      ],
      "name": "AdminRevoked",
      "type": "event"
    },
    {
      "anonymous": false,
      "inputs": [
        {
          "indexed": true,
          "internalType": "address",
          "name": "admin",
          "type": "address"
        },
        {
          "indexed": true,
          "internalType": "address",
          "name": "approval",
          "type": "address"
        }
      ],
      "name": "Approved",
      "type": "event"
    },
    {
      "anonymous": false,
      "inputs": [
        {
          "indexed": false,
          "internalType": "uint256",
          "name": "index",
          "type": "uint256"
        }
      ],
      "name": "CanceledDocument",
      "type": "event"
    },
    {
      "anonymous": false,
      "inputs": [
        {
          "indexed": true,
          "internalType": "address",
          "name": "approval",
          "type": "address"
        },
        {
          "indexed": false,
          "internalType": "string",
          "name": "name",
          "type": "string"
        },
        {
          "indexed": false,
          "internalType": "string",
          "name": "promo",
          "type": "string"
        },
        {
          "indexed": false,
          "internalType": "string",
          "name": "hash",
          "type": "string"
        },
        {
          "indexed": false,
          "internalType": "uint256",
          "name": "uploadedAt",
          "type": "uint256"
        },
        {
          "indexed": false,
          "internalType": "string",
          "name": "ext",
          "type": "string"
        }
      ],
      "name": "DocumentSubmitted",
      "type": "event"
    },
    {
      "anonymous": false,
      "inputs": [
        {
          "indexed": true,
          "internalType": "address",
          "name": "approval",
          "type": "address"
        },
        {
          "indexed": true,
          "internalType": "enum BlockToWin.TypeOfOwner",
          "name": "typeOfOwner",
          "type": "uint8"
        }
      ],
      "name": "Registered",
      "type": "event"
    },
    {
      "anonymous": false,
      "inputs": [
        {
          "indexed": true,
          "internalType": "address",
          "name": "admin",
          "type": "address"
        },
        {
          "indexed": true,
          "internalType": "address",
          "name": "approval",
          "type": "address"
        }
      ],
      "name": "Rejected",
      "type": "event"
    },
    {
      "anonymous": false,
      "inputs": [
        {
          "indexed": false,
          "internalType": "address",
          "name": "admin",
          "type": "address"
        },
        {
          "indexed": false,
          "internalType": "address",
          "name": "approval",
          "type": "address"
        }
      ],
      "name": "RevokeApproval",
      "type": "event"
    },
    {
      "inputs": [
        {
          "internalType": "address",
          "name": "newAdmin",
          "type": "address"
        }
      ],
      "name": "addAdmin",
      "outputs": [],
      "stateMutability": "nonpayable",
      "type": "function"
    },
    {
      "inputs": [
        {
          "internalType": "uint256",
          "name": "",
          "type": "uint256"
        }
      ],
      "name": "approvals",
      "outputs": [
        {
          "internalType": "string",
          "name": "name",
          "type": "string"
        },
        {
          "internalType": "enum BlockToWin.TypeOfOwner",
          "name": "typeOfOwner",
          "type": "uint8"
        },
        {
          "internalType": "address",
          "name": "user",
          "type": "address"
        },
        {
          "internalType": "bool",
          "name": "approved",
          "type": "bool"
        }
      ],
      "stateMutability": "view",
      "type": "function"
    },
    {
      "inputs": [],
      "name": "approvalsCount",
      "outputs": [
        {
          "internalType": "uint256",
          "name": "",
          "type": "uint256"
        }
      ],
      "stateMutability": "view",
      "type": "function"
    },
    {
      "inputs": [
        {
          "internalType": "address",
          "name": "approval",
          "type": "address"
        }
      ],
      "name": "approve",
      "outputs": [],
      "stateMutability": "nonpayable",
      "type": "function"
    },
    {
      "inputs": [
        {
          "internalType": "uint256",
          "name": "index",
          "type": "uint256"
        }
      ],
      "name": "cancelDocument",
      "outputs": [
        {
          "internalType": "bool",
          "name": "",
          "type": "bool"
        }
      ],
      "stateMutability": "nonpayable",
      "type": "function"
    },
    {
      "inputs": [
        {
          "internalType": "uint256",
          "name": "",
          "type": "uint256"
        }
      ],
      "name": "canceledDocuments",
      "outputs": [
        {
          "internalType": "address",
          "name": "owner",
          "type": "address"
        },
        {
          "internalType": "string",
          "name": "name",
          "type": "string"
        },
        {
          "internalType": "string",
          "name": "promo",
          "type": "string"
        },
        {
          "internalType": "uint256",
          "name": "validityStart",
          "type": "uint256"
        },
        {
          "internalType": "uint256",
          "name": "validityEnd",
          "type": "uint256"
        },
        {
          "internalType": "string",
          "name": "hash",
          "type": "string"
        },
        {
          "internalType": "uint256",
          "name": "uploadedAt",
          "type": "uint256"
        },
        {
          "internalType": "string",
          "name": "explorerLink",
          "type": "string"
        },
        {
          "internalType": "string",
          "name": "ipfsLink",
          "type": "string"
        },
        {
          "internalType": "bool",
          "name": "isVisible",
          "type": "bool"
        }
      ],
      "stateMutability": "view",
      "type": "function"
    },
    {
      "inputs": [
        {
          "internalType": "uint256",
          "name": "documentIndex",
          "type": "uint256"
        }
      ],
      "name": "changeDocumentVisibility",
      "outputs": [
        {
          "internalType": "bool",
          "name": "",
          "type": "bool"
        }
      ],
      "stateMutability": "nonpayable",
      "type": "function"
    },
    {
      "inputs": [
        {
          "internalType": "uint256",
          "name": "",
          "type": "uint256"
        }
      ],
      "name": "documents",
      "outputs": [
        {
          "internalType": "address",
          "name": "owner",
          "type": "address"
        },
        {
          "internalType": "string",
          "name": "name",
          "type": "string"
        },
        {
          "internalType": "string",
          "name": "promo",
          "type": "string"
        },
        {
          "internalType": "uint256",
          "name": "validityStart",
          "type": "uint256"
        },
        {
          "internalType": "uint256",
          "name": "validityEnd",
          "type": "uint256"
        },
        {
          "internalType": "string",
          "name": "hash",
          "type": "string"
        },
        {
          "internalType": "uint256",
          "name": "uploadedAt",
          "type": "uint256"
        },
        {
          "internalType": "string",
          "name": "explorerLink",
          "type": "string"
        },
        {
          "internalType": "string",
          "name": "ipfsLink",
          "type": "string"
        },
        {
          "internalType": "bool",
          "name": "isVisible",
          "type": "bool"
        }
      ],
      "stateMutability": "view",
      "type": "function"
    },
    {
      "inputs": [],
      "name": "documentsCount",
      "outputs": [
        {
          "internalType": "uint256",
          "name": "",
          "type": "uint256"
        }
      ],
      "stateMutability": "view",
      "type": "function"
    },
    {
      "inputs": [
        {
          "internalType": "address[]",
          "name": "admins",
          "type": "address[]"
        }
      ],
      "name": "initialize",
      "outputs": [],
      "stateMutability": "nonpayable",
      "type": "function"
    },
    {
      "inputs": [
        {
          "internalType": "address",
          "name": "account",
          "type": "address"
        }
      ],
      "name": "isAdmin",
      "outputs": [
        {
          "internalType": "bool",
          "name": "",
          "type": "bool"
        }
      ],
      "stateMutability": "view",
      "type": "function"
    },
    {
      "inputs": [
        {
          "internalType": "address",
          "name": "account",
          "type": "address"
        }
      ],
      "name": "isApproval",
      "outputs": [
        {
          "internalType": "bool",
          "name": "",
          "type": "bool"
        }
      ],
      "stateMutability": "view",
      "type": "function"
    },
    {
      "inputs": [
        {
          "internalType": "address",
          "name": "",
          "type": "address"
        }
      ],
      "name": "isApprovals",
      "outputs": [
        {
          "internalType": "bool",
          "name": "",
          "type": "bool"
        }
      ],
      "stateMutability": "view",
      "type": "function"
    },
    {
      "inputs": [
        {
          "internalType": "address",
          "name": "user",
          "type": "address"
        }
      ],
      "name": "isPending",
      "outputs": [
        {
          "internalType": "bool",
          "name": "",
          "type": "bool"
        }
      ],
      "stateMutability": "view",
      "type": "function"
    },
    {
      "inputs": [
        {
          "internalType": "address",
          "name": "account",
          "type": "address"
        }
      ],
      "name": "isSuperAdmin",
      "outputs": [
        {
          "internalType": "bool",
          "name": "",
          "type": "bool"
        }
      ],
      "stateMutability": "view",
      "type": "function"
    },
    {
      "inputs": [
        {
          "internalType": "enum BlockToWin.TypeOfOwner",
          "name": "typeOfOwner",
          "type": "uint8"
        },
        {
          "internalType": "string",
          "name": "name",
          "type": "string"
        }
      ],
      "name": "register",
      "outputs": [],
      "stateMutability": "nonpayable",
      "type": "function"
    },
    {
      "inputs": [
        {
          "internalType": "address",
          "name": "approval",
          "type": "address"
        }
      ],
      "name": "reject",
      "outputs": [],
      "stateMutability": "nonpayable",
      "type": "function"
    },
    {
      "inputs": [
        {
          "internalType": "uint256",
          "name": "index",
          "type": "uint256"
        }
      ],
      "name": "removeDocument",
      "outputs": [
        {
          "internalType": "bool",
          "name": "",
          "type": "bool"
        }
      ],
      "stateMutability": "nonpayable",
      "type": "function"
    },
    {
      "inputs": [
        {
          "internalType": "address",
          "name": "revokedAdmin",
          "type": "address"
        }
      ],
      "name": "revokeAdmin",
      "outputs": [],
      "stateMutability": "nonpayable",
      "type": "function"
    },
    {
      "inputs": [
        {
          "internalType": "address",
          "name": "_approval",
          "type": "address"
        }
      ],
      "name": "revokeApproval",
      "outputs": [],
      "stateMutability": "nonpayable",
      "type": "function"
    },
    {
      "inputs": [
        {
          "internalType": "string",
          "name": "name",
          "type": "string"
        },
        {
          "internalType": "string",
          "name": "promo",
          "type": "string"
        },
        {
          "internalType": "uint256",
          "name": "validityStart",
          "type": "uint256"
        },
        {
          "internalType": "uint256",
          "name": "validityEnd",
          "type": "uint256"
        },
        {
          "internalType": "string",
          "name": "hash",
          "type": "string"
        },
        {
          "internalType": "uint256",
          "name": "uploadedAt",
          "type": "uint256"
        },
        {
          "internalType": "string",
          "name": "explorerLink",
          "type": "string"
        },
        {
          "internalType": "string",
          "name": "ipfsLink",
          "type": "string"
        },
        {
          "internalType": "string",
          "name": "ext",
          "type": "string"
        },
        {
          "internalType": "bool",
          "name": "isVisible",
          "type": "bool"
        }
      ],
      "name": "submitDocument",
      "outputs": [],
      "stateMutability": "nonpayable",
      "type": "function"
    },
    {
      "inputs": [
        {
          "internalType": "string",
          "name": "hash",
          "type": "string"
        }
      ],
      "name": "verifyDocument",
      "outputs": [
        {
          "internalType": "bool",
          "name": "",
          "type": "bool"
        }
      ],
      "stateMutability": "view",
      "type": "function"
    }
  ],
  "transactionHash": "0x81cb33c3665a999e13f89809dce69af6624baf1cb8d152e7a9153696dacef9c1",
  "args": [],
  "numDeployments": 1,
  "solcInputHash": "919cc42b0d47ef76e7c96186a1b1459d",
  "bytecode": "0x608060405234801561001057600080fd5b5061241b806100206000396000f3fe608060405234801561001057600080fd5b50600436106101425760003560e01c8063ab0da5a9116100b8578063daea85c51161007c578063daea85c5146102b7578063df17319f146102ca578063df7f453b146102dd578063dff0ef4f146102f0578063e333512014610303578063fa2c689e1461031657610142565b8063ab0da5a914610242578063beee5eb714610255578063c2ed2b0514610268578063d3eb954114610291578063d5df7559146102a457610142565b806363035f661161010a57806363035f66146101be5780636b9f1029146101e157806370480275146101f457806395e52d9814610207578063a00745b61461021c578063a224cee71461022f57610142565b8063146554ff1461014757806324d7806c146101705780632d34567014610183578063331b276314610198578063484685b0146101ab575b600080fd5b61015a610155366004611b3a565b61031e565b6040516101679190611f6f565b60405180910390f35b61015a61017e366004611b3a565b610333565b610196610191366004611b3a565b610355565b005b61015a6101a6366004611b3a565b61043c565b6101966101b9366004611b3a565b61045a565b6101d16101cc366004611db4565b6105d8565b6040516101679493929190611f7a565b6101966101ef366004611c95565b61069a565b610196610202366004611b3a565b6108df565b61020f6109c0565b604051610167919061230c565b61015a61022a366004611b3a565b6109c6565b61019661023d366004611b5b565b610a48565b610196610250366004611b3a565b610baf565b61015a610263366004611c5a565b610d6c565b61027b610276366004611db4565b610dcf565b6040516101679a99989796959493929190611ecc565b61019661029f366004611c09565b6110d1565b61015a6102b2366004611db4565b611257565b6101966102c5366004611b3a565b611355565b61015a6102d8366004611db4565b61150f565b61015a6102eb366004611b3a565b611777565b61027b6102fe366004611db4565b611795565b61015a610311366004611db4565b6117c1565b61020f61182b565b60366020526000908152604090205460ff1681565b6001600160a01b03811660009081526033602052604090205460ff165b919050565b60346000610361611831565b6001600160a01b0316815260208101919091526040016000205460ff166103a35760405162461bcd60e51b815260040161039a90612230565b60405180910390fd5b6001600160a01b03811660009081526034602052604090205460ff16156103dc5760405162461bcd60e51b815260040161039a906122d5565b6001600160a01b0381166000818152603360205260409020805460ff19169055610404611831565b6001600160a01b03167f7c0c3c84c67c85fcac635147348bfe374c24a1a93d0366d1cfe9d8853cbf89d560405160405180910390a350565b6001600160a01b031660009081526036602052604090205460ff1690565b60336000610466611831565b6001600160a01b0316815260208101919091526040016000205460ff1661049f5760405162461bcd60e51b815260040161039a9061217c565b6001600160a01b0381166104c55760405162461bcd60e51b815260040161039a90612032565b6000805b603a548110156105b6576000818152603560205260409020600101546001600160a01b038481166101009092041614156105a4576000818152603560205260408120906105168282611958565b50600190810180546001600160b01b0319169055600082815260356020908152604080832084015461010090046001600160a01b0316835260369091529020805460ff1916905591507f79e9049db00c078a08dbf3dfae6a5f75db3447f6cb45deb32c55c7cba304722e610588611831565b84604051610597929190611eb2565b60405180910390a16105b6565b806105ae8161239e565b9150506104c9565b50806105d45760405162461bcd60e51b815260040161039a90612145565b5050565b6035602052600090815260409020805481906105f390612363565b80601f016020809104026020016040519081016040528092919081815260200182805461061f90612363565b801561066c5780601f106106415761010080835404028352916020019161066c565b820191906000526020600020905b81548152906001019060200180831161064f57829003601f168201915b5050506001909301549192505060ff808216916001600160a01b0361010082041691600160a81b9091041684565b603660006106a6611831565b6001600160a01b0316815260208101919091526040016000205460ff166106df5760405162461bcd60e51b815260040161039a9061229e565b6106e886610d6c565b156107055760405162461bcd60e51b815260040161039a9061210e565b604051806101400160405280610719611831565b6001600160a01b031681526020018b81526020018a815260200189815260200188815260200187815260200186815260200185815260200184815260200182151581525060376000603954815260200190815260200160002060008201518160000160006101000a8154816001600160a01b0302191690836001600160a01b0316021790555060208201518160010190805190602001906107bb929190611994565b50604082015180516107d7916002840191602090910190611994565b50606082015160038201556080820151600482015560a08201518051610807916005840191602090910190611994565b5060c0820151600682015560e0820151805161082d916007840191602090910190611994565b50610100820151805161084a916008840191602090910190611994565b5061012091909101516009909101805460ff1916911515919091179055603980546001919060009061087d90849061234b565b9091555061088b9050611831565b6001600160a01b03167f2d0f6b4ccdebe43212fa3227dbadcb7129f23c41bd3fe08615644b3c80394b708b8b8989876040516108cb959493929190611fd3565b60405180910390a250505050505050505050565b603460006108eb611831565b6001600160a01b0316815260208101919091526040016000205460ff166109245760405162461bcd60e51b815260040161039a90612230565b6001600160a01b03811660009081526033602052604090205460ff161561095d5760405162461bcd60e51b815260040161039a90612069565b6001600160a01b0381166000818152603360205260409020805460ff19166001179055610988611831565b6001600160a01b03167fbf3f493c772c8c283fd124432c2d0f539ab343faa04258fe88e52912d36b102b60405160405180910390a350565b60395481565b6000805b603a54811015610a3f576000818152603560205260409020600101546001600160a01b0384811661010090920416148015610a1e5750600081815260356020526040902060010154600160a81b900460ff16155b15610a2d576001915050610350565b80610a378161239e565b9150506109ca565b50600092915050565b600054610100900460ff1680610a615750610a61611835565b80610a6f575060005460ff16155b610a8b5760405162461bcd60e51b815260040161039a906121e2565b600054610100900460ff16158015610ab6576000805460ff1961ff0019909116610100171660011790555b60005b8251811015610b9157600160336000858481518110610ae857634e487b7160e01b600052603260045260246000fd5b60200260200101516001600160a01b03166001600160a01b0316815260200190815260200160002060006101000a81548160ff021916908315150217905550600160346000858481518110610b4d57634e487b7160e01b600052603260045260246000fd5b6020908102919091018101516001600160a01b03168252810191909152604001600020805460ff191691151591909117905580610b898161239e565b915050610ab9565b50610b9a611846565b80156105d4576000805461ff00191690555050565b60336000610bbb611831565b6001600160a01b0316815260208101919091526040016000205460ff16610bf45760405162461bcd60e51b815260040161039a9061217c565b6001600160a01b038116600090815260366020526040902054819060ff1615610c2f5760405162461bcd60e51b815260040161039a906120d7565b6001600160a01b038216610c555760405162461bcd60e51b815260040161039a90612032565b6000805b603a54811015610d49576000818152603560205260409020600101546001600160a01b03858116610100909204161415610d3757600081815260356020526040812090610ca68282611958565b50600190810180546001600160b01b0319169055600082815260356020908152604080832084015461010090046001600160a01b0390811684526036909252909120805460ff191690559092508416610cfd611831565b6001600160a01b03167f1fd08c43ff018b384f5037a68179f90e0808a91887eeb0c991bc72dbc96a53fd60405160405180910390a3610d49565b80610d418161239e565b915050610c59565b5080610d675760405162461bcd60e51b815260040161039a90612145565b505050565b6000805b603954811015610a3f57828051906020012060376000838152602001908152602001600020600501604051610da59190611e17565b60405180910390201415610dbd576001915050610350565b80610dc78161239e565b915050610d70565b603760205260009081526040902080546001820180546001600160a01b039092169291610dfb90612363565b80601f0160208091040260200160405190810160405280929190818152602001828054610e2790612363565b8015610e745780601f10610e4957610100808354040283529160200191610e74565b820191906000526020600020905b815481529060010190602001808311610e5757829003601f168201915b505050505090806002018054610e8990612363565b80601f0160208091040260200160405190810160405280929190818152602001828054610eb590612363565b8015610f025780601f10610ed757610100808354040283529160200191610f02565b820191906000526020600020905b815481529060010190602001808311610ee557829003601f168201915b505050505090806003015490806004015490806005018054610f2390612363565b80601f0160208091040260200160405190810160405280929190818152602001828054610f4f90612363565b8015610f9c5780601f10610f7157610100808354040283529160200191610f9c565b820191906000526020600020905b815481529060010190602001808311610f7f57829003601f168201915b505050505090806006015490806007018054610fb790612363565b80601f0160208091040260200160405190810160405280929190818152602001828054610fe390612363565b80156110305780601f1061100557610100808354040283529160200191611030565b820191906000526020600020905b81548152906001019060200180831161101357829003601f168201915b50505050509080600801805461104590612363565b80601f016020809104026020016040519081016040528092919081815260200182805461107190612363565b80156110be5780601f10611093576101008083540402835291602001916110be565b820191906000526020600020905b8154815290600101906020018083116110a157829003601f168201915b5050506009909301549192505060ff168a565b6110d9611831565b6110e2816109c6565b156110ff5760405162461bcd60e51b815260040161039a906120a0565b611107611831565b6001600160a01b03811660009081526036602052604090205460ff16156111405760405162461bcd60e51b815260040161039a906120d7565b611148611831565b603a8054600090815260356020526040808220600190810180546001600160a01b039690961661010002610100600160a81b031990961695909517909455915481522081018054869260ff199091169083818111156111b757634e487b7160e01b600052602160045260246000fd5b0217905550603a54600090815260356020908152604090912084516111de92860190611994565b50603a80549060006111ef8361239e565b919050555083600181111561121457634e487b7160e01b600052602160045260246000fd5b61121c611831565b6001600160a01b03167f89b4e995568c900aa52376cbed225dc1a013c9a43cb58186d69676ff593d7c4e60405160405180910390a350505050565b600060336000611265611831565b6001600160a01b0316815260208101919091526040016000205460ff1661129e5760405162461bcd60e51b815260040161039a9061217c565b6000828152603760205260409020546001600160a01b03161561134d57600082815260376020526040812080546001600160a01b0319168155906112e56001830182611958565b6112f3600283016000611958565b600382016000905560048201600090556005820160006113139190611958565b600682016000905560078201600061132b9190611958565b611339600883016000611958565b50600901805460ff19169055506001610350565b506000919050565b60336000611361611831565b6001600160a01b0316815260208101919091526040016000205460ff1661139a5760405162461bcd60e51b815260040161039a9061217c565b6001600160a01b038116600090815260366020526040902054819060ff16156113d55760405162461bcd60e51b815260040161039a906120d7565b6001600160a01b0382166113fb5760405162461bcd60e51b815260040161039a90612032565b60005b603a548110156114d6576000818152603560205260409020600101546001600160a01b038481166101009092041614156114c45760008181526035602090815260408083206001908101805460ff60a81b1916600160a81b17908190556001600160a01b036101009091048116855260369093529220805460ff1916909217909155831661148a611831565b6001600160a01b03167faad2833c9fd7a3de33f301e5186ee84d1a5753ce32de6b97baedaac4b92b55fc60405160405180910390a36114d6565b806114ce8161239e565b9150506113fe565b506001600160a01b03821660009081526036602052604090205460ff166105d45760405162461bcd60e51b815260040161039a906121ab565b3360009081526033602052604081205460ff168061154357506000828152603760205260409020546001600160a01b031633145b61154c57600080fd5b6000828152603760205260409020546001600160a01b03161561134d5760008281526037602052604090206009015460ff1661159f576000828152603760205260409020600901805460ff191660011790555b60008281526037602090815260408083206038909252909120815481546001600160a01b0319166001600160a01b0390911617815560018083018054918301916115e890612363565b6115f3929190611a18565b50600282018160020190805461160890612363565b611613929190611a18565b506003820154816003015560048201548160040155600582018160050190805461163c90612363565b611647929190611a18565b5060068201548160060155600782018160070190805461166690612363565b611671929190611a18565b50600882018160080190805461168690612363565b611691929190611a18565b506009918201549101805460ff191660ff9092161515919091179055600082815260376020526040812080546001600160a01b0319168155906116d76001830182611958565b6116e5600283016000611958565b600382016000905560048201600090556005820160006117059190611958565b600682016000905560078201600061171d9190611958565b61172b600883016000611958565b50600901805460ff191690556040517fb24ed87c676418c268d51d484f3aa6c8da9b3fc08411fb509e05c342cefbcd599061176790849061230c565b60405180910390a1506001610350565b6001600160a01b031660009081526034602052604090205460ff1690565b603860205260009081526040902080546001820180546001600160a01b039092169291610dfb90612363565b60006117cb611831565b6000838152603760205260409020546001600160a01b039081169116146118045760405162461bcd60e51b815260040161039a90612267565b506000908152603760205260409020600901805460ff81161560ff19909116179055600190565b603a5481565b3390565b6000611840306118d1565b15905090565b600054610100900460ff168061185f575061185f611835565b8061186d575060005460ff16155b6118895760405162461bcd60e51b815260040161039a906121e2565b600054610100900460ff161580156118b4576000805460ff1961ff0019909116610100171660011790555b6118bc6118d7565b80156118ce576000805461ff00191690555b50565b3b151590565b600054610100900460ff16806118f057506118f0611835565b806118fe575060005460ff16155b61191a5760405162461bcd60e51b815260040161039a906121e2565b600054610100900460ff161580156118bc576000805460ff1961ff00199091166101001716600117905580156118ce576000805461ff001916905550565b50805461196490612363565b6000825580601f1061197657506118ce565b601f0160209004906000526020600020908101906118ce9190611a93565b8280546119a090612363565b90600052602060002090601f0160209004810192826119c25760008555611a08565b82601f106119db57805160ff1916838001178555611a08565b82800160010185558215611a08579182015b82811115611a085782518255916020019190600101906119ed565b50611a14929150611a93565b5090565b828054611a2490612363565b90600052602060002090601f016020900481019282611a465760008555611a08565b82601f10611a575780548555611a08565b82800160010185558215611a0857600052602060002091601f016020900482015b82811115611a08578254825591600101919060010190611a78565b5b80821115611a145760008155600101611a94565b80356001600160a01b038116811461035057600080fd5b8035801515811461035057600080fd5b600082601f830112611adf578081fd5b813567ffffffffffffffff811115611af957611af96123cf565b611b0c601f8201601f1916602001612315565b818152846020838601011115611b20578283fd5b816020850160208301379081016020019190915292915050565b600060208284031215611b4b578081fd5b611b5482611aa8565b9392505050565b60006020808385031215611b6d578182fd5b823567ffffffffffffffff80821115611b84578384fd5b818501915085601f830112611b97578384fd5b813581811115611ba957611ba96123cf565b8381029150611bb9848301612315565b8181528481019084860184860187018a1015611bd3578788fd5b8795505b83861015611bfc57611be881611aa8565b835260019590950194918601918601611bd7565b5098975050505050505050565b60008060408385031215611c1b578081fd5b823560028110611c29578182fd5b9150602083013567ffffffffffffffff811115611c44578182fd5b611c5085828601611acf565b9150509250929050565b600060208284031215611c6b578081fd5b813567ffffffffffffffff811115611c81578182fd5b611c8d84828501611acf565b949350505050565b6000806000806000806000806000806101408b8d031215611cb4578586fd5b8a3567ffffffffffffffff80821115611ccb578788fd5b611cd78e838f01611acf565b9b5060208d0135915080821115611cec578788fd5b611cf88e838f01611acf565b9a5060408d0135995060608d0135985060808d0135915080821115611d1b578788fd5b611d278e838f01611acf565b975060a08d0135965060c08d0135915080821115611d43578586fd5b611d4f8e838f01611acf565b955060e08d0135915080821115611d64578485fd5b611d708e838f01611acf565b94506101008d0135915080821115611d86578384fd5b50611d938d828e01611acf565b925050611da36101208c01611abf565b90509295989b9194979a5092959850565b600060208284031215611dc5578081fd5b5035919050565b60008151808452815b81811015611df157602081850181015186830182015201611dd5565b81811115611e025782602083870101525b50601f01601f19169290920160200192915050565b8154600090819060028104600180831680611e3357607f831692505b6020808410821415611e5357634e487b7160e01b87526022600452602487fd5b818015611e675760018114611e7857611ea4565b60ff19861689528489019650611ea4565b611e818a61233f565b885b86811015611e9c5781548b820152908501908301611e83565b505084890196505b509498975050505050505050565b6001600160a01b0392831681529116602082015260400190565b6001600160a01b038b16815261014060208201819052600090611ef18382018d611dcc565b90508281036040840152611f05818c611dcc565b905089606084015288608084015282810360a0840152611f258189611dcc565b90508660c084015282810360e0840152611f3f8187611dcc565b9050828103610100840152611f548186611dcc565b9150508215156101208301529b9a5050505050505050505050565b901515815260200190565b600060808252611f8d6080830187611dcc565b905060028510611fad57634e487b7160e01b600052602160045260246000fd5b60208201949094526001600160a01b039290921660408301521515606090910152919050565b600060a08252611fe660a0830188611dcc565b8281036020840152611ff88188611dcc565b9050828103604084015261200c8187611dcc565b905084606084015282810360808401526120268185611dcc565b98975050505050505050565b60208082526018908201527f426c6f636b546f57696e3a205a45524f5f414444524553530000000000000000604082015260600190565b60208082526018908201527f426c6f636b546f57696e3a2041444d494e5f4558495354530000000000000000604082015260600190565b6020808252601a908201527f426c6f636b546f57696e3a2050454e44494e475f455849535453000000000000604082015260600190565b6020808252601b908201527f426c6f636b546f57696e3a20415050524f56414c5f4558495354530000000000604082015260600190565b60208082526017908201527f426c6f636b546f57696e3a20484153485f455849535453000000000000000000604082015260600190565b6020808252601f908201527f426c6f636b546f57696e3a20415050524f56414c5f4e4f545f45584953545300604082015260600190565b602080825260159082015274213637b1b5aa37abb4b71d102727aa2fa0a226a4a760591b604082015260600190565b6020808252601a908201527f426c6f636b546f57696e3a20415050524f56414c5f4552524f52000000000000604082015260600190565b6020808252602e908201527f496e697469616c697a61626c653a20636f6e747261637420697320616c72656160408201526d191e481a5b9a5d1a585b1a5e995960921b606082015260800190565b6020808252601b908201527f426c6f636b546f57696e3a204e4f545f53555045525f41444d494e0000000000604082015260600190565b6020808252601e908201527f426c6f636b546f57696e3a204e4f545f4f574e45525f444f43554d454e540000604082015260600190565b60208082526018908201527f426c6f636b546f57696e3a204e4f545f415050524f56414c0000000000000000604082015260600190565b6020808252601d908201527f426c6f636b546f57696e3a2053555045525f41444d494e5f4552524f52000000604082015260600190565b90815260200190565b60405181810167ffffffffffffffff81118282101715612337576123376123cf565b604052919050565b60009081526020902090565b6000821982111561235e5761235e6123b9565b500190565b60028104600182168061237757607f821691505b6020821081141561239857634e487b7160e01b600052602260045260246000fd5b50919050565b60006000198214156123b2576123b26123b9565b5060010190565b634e487b7160e01b600052601160045260246000fd5b634e487b7160e01b600052604160045260246000fdfea2646970667358221220fd48f6beeacbded495d398f16025ff8ca7a5ac3283d58c08c02fd2cbaa5e159464736f6c63430008000033",
  "devdoc": {
    "author": "Rafael Romero (@rafius97)Guillermo Campanudo (@capitanwesler)Victor Hernndez (@NanexZ)",
    "events": {
      "AdminAdded(address,address)": {
        "details": "Emitted when `superAdmin` adds a new admin."
      },
      "AdminRevoked(address,address)": {
        "details": "Emitted when `superAdmin` revokes an admin."
      },
      "Approved(address,address)": {
        "details": "Emitted when `admin` approves `approval`."
      },
      "DocumentSubmitted(address,string,string,string,uint256,string)": {
        "details": "Emitted when `approval` submits a document."
      },
      "Registered(address,uint8)": {
        "details": "Emitted when `approval` is registered in order to be approved or rejected."
      },
      "Rejected(address,address)": {
        "details": "Emitted when `admin` rejects `approval`."
      }
    },
    "kind": "dev",
    "methods": {
      "addAdmin(address)": {
        "params": {
          "newAdmin": "The address of the new admin to be added Emits a {AdminAdded} event."
        }
      },
      "approve(address)": {
        "params": {
          "approval": "Address of the approval that is going to be approved Emits a {Approved} event."
        }
      },
      "isPending(address)": {
        "params": {
          "user": "The address to be checked if it is pending"
        }
      },
      "reject(address)": {
        "params": {
          "approval": "Address of the approval that is going to be rejected. Emits a {Rejected} event."
        }
      },
      "revokeAdmin(address)": {
        "params": {
          "revokedAdmin": "The address of the admin to be revoked Emits a {AdminRevoked} event."
        }
      },
      "submitDocument(string,string,uint256,uint256,string,uint256,string,string,string,bool)": {
        "params": {
          "explorerLink": "Link of the document hash in the explorer",
          "ext": "Extension of the document (ex: .pdf .doc .txt) Emits a {DocumentSubmitted} event.",
          "hash": "Hash generated by the IPFS",
          "ipfsLink": "Link of the document hash in the IPFS",
          "name": "Name of the company/user.",
          "promo": "Description of the promo.",
          "uploadedAt": "Timestamp for the generated document",
          "validityEnd": "Timestampt for the validity end, in unix",
          "validityStart": "Timestamp for the validity start, in unix"
        }
      }
    },
    "stateVariables": {
      "_isAdmin": {
        "details": "Returns true if an account is an admin"
      },
      "_isSuperAdmin": {
        "details": "Returns true if an account is an super admin"
      },
      "approvalsCount": {
        "return": "The counter of the users."
      },
      "documentsCount": {
        "return": "The counter of the documents."
      },
      "isApprovals": {
        "details": "Mapping from address to a bool.",
        "return": "True if an account is approval."
      }
    },
    "title": "BlockToWin Platform",
    "version": 1
  },
  "userdoc": {
    "kind": "user",
    "methods": {
      "addAdmin(address)": {
        "notice": "Adds a new admin to operate the contract"
      },
      "approvalsCount()": {
        "notice": "Retrieves the amount of users."
      },
      "approve(address)": {
        "notice": "Approves a pending account for approval."
      },
      "cancelDocument(uint256)": {
        "notice": "cancel a document only the approval"
      },
      "changeDocumentVisibility(uint256)": {
        "notice": "Change the visibility of a document if you are the owner of that document, if you aren't the owner, it's just returning false."
      },
      "documentsCount()": {
        "notice": "Retrieves the amount of documents submitted."
      },
      "isAdmin(address)": {
        "notice": "Returns true if `account` is an admin"
      },
      "isApproval(address)": {
        "notice": "Returns true if `account` is an approval"
      },
      "isPending(address)": {
        "notice": "Returns true if `user` is pending for approval"
      },
      "isSuperAdmin(address)": {
        "notice": "Returns true if `account` is an admin who deploy the contract"
      },
      "register(uint8,string)": {
        "notice": "Registers an account in order to be approved or rejected by an admin. Emits a {Registered} event."
      },
      "reject(address)": {
        "notice": "Rejects a pending account for approval."
      },
      "removeDocument(uint256)": {
        "notice": "Removes a document at `index` in the mapping of documents"
      },
      "revokeAdmin(address)": {
        "notice": "Adds a new admin to operate the contract"
      },
      "revokeApproval(address)": {
        "notice": "revoke an approval "
      },
      "submitDocument(string,string,uint256,uint256,string,uint256,string,string,string,bool)": {
        "notice": "Allows to an approval submits a document."
      },
      "verifyDocument(string)": {
        "notice": "Returns true if `hash` already exist in a document"
      }
    },
    "notice": "BlockToWin allows you to submit documents that can be verified in IPFS",
    "version": 1
  },
  "storageLayout": {
    "storage": [
      {
        "astId": 6,
        "contract": "contracts/BlockToWin.sol:BlockToWin",
        "label": "_initialized",
        "offset": 0,
        "slot": "0",
        "type": "t_bool"
      },
      {
        "astId": 9,
        "contract": "contracts/BlockToWin.sol:BlockToWin",
        "label": "_initializing",
        "offset": 1,
        "slot": "0",
        "type": "t_bool"
      },
      {
        "astId": 353,
        "contract": "contracts/BlockToWin.sol:BlockToWin",
        "label": "__gap",
        "offset": 0,
        "slot": "1",
        "type": "t_array(t_uint256)50_storage"
      },
      {
        "astId": 370,
        "contract": "contracts/BlockToWin.sol:BlockToWin",
        "label": "_isAdmin",
        "offset": 0,
        "slot": "51",
        "type": "t_mapping(t_address,t_bool)"
      },
      {
        "astId": 375,
        "contract": "contracts/BlockToWin.sol:BlockToWin",
        "label": "_isSuperAdmin",
        "offset": 0,
        "slot": "52",
        "type": "t_mapping(t_address,t_bool)"
      },
      {
        "astId": 390,
        "contract": "contracts/BlockToWin.sol:BlockToWin",
        "label": "approvals",
        "offset": 0,
        "slot": "53",
        "type": "t_mapping(t_uint256,t_struct(Approval)385_storage)"
      },
      {
        "astId": 395,
        "contract": "contracts/BlockToWin.sol:BlockToWin",
        "label": "isApprovals",
        "offset": 0,
        "slot": "54",
        "type": "t_mapping(t_address,t_bool)"
      },
      {
        "astId": 421,
        "contract": "contracts/BlockToWin.sol:BlockToWin",
        "label": "documents",
        "offset": 0,
        "slot": "55",
        "type": "t_mapping(t_uint256,t_struct(Document)416_storage)"
      },
      {
        "astId": 426,
        "contract": "contracts/BlockToWin.sol:BlockToWin",
        "label": "canceledDocuments",
        "offset": 0,
        "slot": "56",
        "type": "t_mapping(t_uint256,t_struct(Document)416_storage)"
      },
      {
        "astId": 429,
        "contract": "contracts/BlockToWin.sol:BlockToWin",
        "label": "documentsCount",
        "offset": 0,
        "slot": "57",
        "type": "t_uint256"
      },
      {
        "astId": 432,
        "contract": "contracts/BlockToWin.sol:BlockToWin",
        "label": "approvalsCount",
        "offset": 0,
        "slot": "58",
        "type": "t_uint256"
      }
    ],
    "types": {
      "t_address": {
        "encoding": "inplace",
        "label": "address",
        "numberOfBytes": "20"
      },
      "t_array(t_uint256)50_storage": {
        "base": "t_uint256",
        "encoding": "inplace",
        "label": "uint256[50]",
        "numberOfBytes": "1600"
      },
      "t_bool": {
        "encoding": "inplace",
        "label": "bool",
        "numberOfBytes": "1"
      },
      "t_enum(TypeOfOwner)435": {
        "encoding": "inplace",
        "label": "enum BlockToWin.TypeOfOwner",
        "numberOfBytes": "1"
      },
      "t_mapping(t_address,t_bool)": {
        "encoding": "mapping",
        "key": "t_address",
        "label": "mapping(address => bool)",
        "numberOfBytes": "32",
        "value": "t_bool"
      },
      "t_mapping(t_uint256,t_struct(Approval)385_storage)": {
        "encoding": "mapping",
        "key": "t_uint256",
        "label": "mapping(uint256 => struct BlockToWin.Approval)",
        "numberOfBytes": "32",
        "value": "t_struct(Approval)385_storage"
      },
      "t_mapping(t_uint256,t_struct(Document)416_storage)": {
        "encoding": "mapping",
        "key": "t_uint256",
        "label": "mapping(uint256 => struct BlockToWin.Document)",
        "numberOfBytes": "32",
        "value": "t_struct(Document)416_storage"
      },
      "t_string_storage": {
        "encoding": "bytes",
        "label": "string",
        "numberOfBytes": "32"
      },
      "t_struct(Approval)385_storage": {
        "encoding": "inplace",
        "label": "struct BlockToWin.Approval",
        "members": [
          {
            "astId": 377,
            "contract": "contracts/BlockToWin.sol:BlockToWin",
            "label": "name",
            "offset": 0,
            "slot": "0",
            "type": "t_string_storage"
          },
          {
            "astId": 380,
            "contract": "contracts/BlockToWin.sol:BlockToWin",
            "label": "typeOfOwner",
            "offset": 0,
            "slot": "1",
            "type": "t_enum(TypeOfOwner)435"
          },
          {
            "astId": 382,
            "contract": "contracts/BlockToWin.sol:BlockToWin",
            "label": "user",
            "offset": 1,
            "slot": "1",
            "type": "t_address"
          },
          {
            "astId": 384,
            "contract": "contracts/BlockToWin.sol:BlockToWin",
            "label": "approved",
            "offset": 21,
            "slot": "1",
            "type": "t_bool"
          }
        ],
        "numberOfBytes": "64"
      },
      "t_struct(Document)416_storage": {
        "encoding": "inplace",
        "label": "struct BlockToWin.Document",
        "members": [
          {
            "astId": 397,
            "contract": "contracts/BlockToWin.sol:BlockToWin",
            "label": "owner",
            "offset": 0,
            "slot": "0",
            "type": "t_address"
          },
          {
            "astId": 399,
            "contract": "contracts/BlockToWin.sol:BlockToWin",
            "label": "name",
            "offset": 0,
            "slot": "1",
            "type": "t_string_storage"
          },
          {
            "astId": 401,
            "contract": "contracts/BlockToWin.sol:BlockToWin",
            "label": "promo",
            "offset": 0,
            "slot": "2",
            "type": "t_string_storage"
          },
          {
            "astId": 403,
            "contract": "contracts/BlockToWin.sol:BlockToWin",
            "label": "validityStart",
            "offset": 0,
            "slot": "3",
            "type": "t_uint256"
          },
          {
            "astId": 405,
            "contract": "contracts/BlockToWin.sol:BlockToWin",
            "label": "validityEnd",
            "offset": 0,
            "slot": "4",
            "type": "t_uint256"
          },
          {
            "astId": 407,
            "contract": "contracts/BlockToWin.sol:BlockToWin",
            "label": "hash",
            "offset": 0,
            "slot": "5",
            "type": "t_string_storage"
          },
          {
            "astId": 409,
            "contract": "contracts/BlockToWin.sol:BlockToWin",
            "label": "uploadedAt",
            "offset": 0,
            "slot": "6",
            "type": "t_uint256"
          },
          {
            "astId": 411,
            "contract": "contracts/BlockToWin.sol:BlockToWin",
            "label": "explorerLink",
            "offset": 0,
            "slot": "7",
            "type": "t_string_storage"
          },
          {
            "astId": 413,
            "contract": "contracts/BlockToWin.sol:BlockToWin",
            "label": "ipfsLink",
            "offset": 0,
            "slot": "8",
            "type": "t_string_storage"
          },
          {
            "astId": 415,
            "contract": "contracts/BlockToWin.sol:BlockToWin",
            "label": "isVisible",
            "offset": 0,
            "slot": "9",
            "type": "t_bool"
          }
        ],
        "numberOfBytes": "320"
      },
      "t_uint256": {
        "encoding": "inplace",
        "label": "uint256",
        "numberOfBytes": "32"
      }
    }
  }
}